{
  "_format": "hh-sol-artifact-1",
  "contractName": "TrustBadgeNFT",
  "sourceName": "contracts/TrustBadgeNFT.sol",
  "abi": [
    {
      "inputs": [],
      "stateMutability": "nonpayable",
      "type": "constructor"
    },
    {
      "inputs": [
        {
          "internalType": "address",
          "name": "sender",
          "type": "address"
        },
        {
          "internalType": "uint256",
          "name": "tokenId",
          "type": "uint256"
        },
        {
          "internalType": "address",
          "name": "owner",
          "type": "address"
        }
      ],
      "name": "ERC721IncorrectOwner",
      "type": "error"
    },
    {
      "inputs": [
        {
          "internalType": "address",
          "name": "operator",
          "type": "address"
        },
        {
          "internalType": "uint256",
          "name": "tokenId",
          "type": "uint256"
        }
      ],
      "name": "ERC721InsufficientApproval",
      "type": "error"
    },
    {
      "inputs": [
        {
          "internalType": "address",
          "name": "approver",
          "type": "address"
        }
      ],
      "name": "ERC721InvalidApprover",
      "type": "error"
    },
    {
      "inputs": [
        {
          "internalType": "address",
          "name": "operator",
          "type": "address"
        }
      ],
      "name": "ERC721InvalidOperator",
      "type": "error"
    },
    {
      "inputs": [
        {
          "internalType": "address",
          "name": "owner",
          "type": "address"
        }
      ],
      "name": "ERC721InvalidOwner",
      "type": "error"
    },
    {
      "inputs": [
        {
          "internalType": "address",
          "name": "receiver",
          "type": "address"
        }
      ],
      "name": "ERC721InvalidReceiver",
      "type": "error"
    },
    {
      "inputs": [
        {
          "internalType": "address",
          "name": "sender",
          "type": "address"
        }
      ],
      "name": "ERC721InvalidSender",
      "type": "error"
    },
    {
      "inputs": [
        {
          "internalType": "uint256",
          "name": "tokenId",
          "type": "uint256"
        }
      ],
      "name": "ERC721NonexistentToken",
      "type": "error"
    },
    {
      "inputs": [
        {
          "internalType": "address",
          "name": "owner",
          "type": "address"
        }
      ],
      "name": "OwnableInvalidOwner",
      "type": "error"
    },
    {
      "inputs": [
        {
          "internalType": "address",
          "name": "account",
          "type": "address"
        }
      ],
      "name": "OwnableUnauthorizedAccount",
      "type": "error"
    },
    {
      "anonymous": false,
      "inputs": [
        {
          "indexed": true,
          "internalType": "address",
          "name": "owner",
          "type": "address"
        },
        {
          "indexed": true,
          "internalType": "address",
          "name": "approved",
          "type": "address"
        },
        {
          "indexed": true,
          "internalType": "uint256",
          "name": "tokenId",
          "type": "uint256"
        }
      ],
      "name": "Approval",
      "type": "event"
    },
    {
      "anonymous": false,
      "inputs": [
        {
          "indexed": true,
          "internalType": "address",
          "name": "owner",
          "type": "address"
        },
        {
          "indexed": true,
          "internalType": "address",
          "name": "operator",
          "type": "address"
        },
        {
          "indexed": false,
          "internalType": "bool",
          "name": "approved",
          "type": "bool"
        }
      ],
      "name": "ApprovalForAll",
      "type": "event"
    },
    {
      "anonymous": false,
      "inputs": [
        {
          "indexed": true,
          "internalType": "uint256",
          "name": "tokenId",
          "type": "uint256"
        },
        {
          "indexed": false,
          "internalType": "enum TrustBadgeNFT.BadgeType",
          "name": "badgeType",
          "type": "uint8"
        },
        {
          "indexed": false,
          "internalType": "string",
          "name": "domain",
          "type": "string"
        },
        {
          "indexed": true,
          "internalType": "address",
          "name": "recipient",
          "type": "address"
        }
      ],
      "name": "BadgeMinted",
      "type": "event"
    },
    {
      "anonymous": false,
      "inputs": [
        {
          "indexed": true,
          "internalType": "uint256",
          "name": "tokenId",
          "type": "uint256"
        },
        {
          "indexed": true,
          "internalType": "address",
          "name": "from",
          "type": "address"
        },
        {
          "indexed": true,
          "internalType": "address",
          "name": "to",
          "type": "address"
        }
      ],
      "name": "BadgeTransferred",
      "type": "event"
    },
    {
      "anonymous": false,
      "inputs": [
        {
          "indexed": false,
          "internalType": "uint256",
          "name": "_fromTokenId",
          "type": "uint256"
        },
        {
          "indexed": false,
          "internalType": "uint256",
          "name": "_toTokenId",
          "type": "uint256"
        }
      ],
      "name": "BatchMetadataUpdate",
      "type": "event"
    },
    {
      "anonymous": false,
      "inputs": [
        {
          "indexed": false,
          "internalType": "uint256",
          "name": "_tokenId",
          "type": "uint256"
        }
      ],
      "name": "MetadataUpdate",
      "type": "event"
    },
    {
      "anonymous": false,
      "inputs": [
        {
          "indexed": true,
          "internalType": "address",
          "name": "previousOwner",
          "type": "address"
        },
        {
          "indexed": true,
          "internalType": "address",
          "name": "newOwner",
          "type": "address"
        }
      ],
      "name": "OwnershipTransferred",
      "type": "event"
    },
    {
      "anonymous": false,
      "inputs": [
        {
          "indexed": true,
          "internalType": "address",
          "name": "from",
          "type": "address"
        },
        {
          "indexed": true,
          "internalType": "address",
          "name": "to",
          "type": "address"
        },
        {
          "indexed": true,
          "internalType": "uint256",
          "name": "tokenId",
          "type": "uint256"
        }
      ],
      "name": "Transfer",
      "type": "event"
    },
    {
      "inputs": [],
      "name": "MIN_REPUTATION_FOR_VERIFIER",
      "outputs": [
        {
          "internalType": "uint256",
          "name": "",
          "type": "uint256"
        }
      ],
      "stateMutability": "view",
      "type": "function"
    },
    {
      "inputs": [],
      "name": "MIN_TRUST_SCORE_FOR_BADGE",
      "outputs": [
        {
          "internalType": "uint256",
          "name": "",
          "type": "uint256"
        }
      ],
      "stateMutability": "view",
      "type": "function"
    },
    {
      "inputs": [
        {
          "internalType": "address",
          "name": "to",
          "type": "address"
        },
        {
          "internalType": "uint256",
          "name": "tokenId",
          "type": "uint256"
        }
      ],
      "name": "approve",
      "outputs": [],
      "stateMutability": "nonpayable",
      "type": "function"
    },
    {
      "inputs": [
        {
          "internalType": "uint256",
          "name": "",
          "type": "uint256"
        }
      ],
      "name": "badgeMetadata",
      "outputs": [
        {
          "internalType": "enum TrustBadgeNFT.BadgeType",
          "name": "badgeType",
          "type": "uint8"
        },
        {
          "internalType": "string",
          "name": "domain",
          "type": "string"
        },
        {
          "internalType": "uint256",
          "name": "trustScore",
          "type": "uint256"
        },
        {
          "internalType": "uint256",
          "name": "timestamp",
          "type": "uint256"
        },
        {
          "internalType": "string",
          "name": "ipfsHash",
          "type": "string"
        }
      ],
      "stateMutability": "view",
      "type": "function"
    },
    {
      "inputs": [
        {
          "internalType": "address",
          "name": "owner",
          "type": "address"
        }
      ],
      "name": "balanceOf",
      "outputs": [
        {
          "internalType": "uint256",
          "name": "",
          "type": "uint256"
        }
      ],
      "stateMutability": "view",
      "type": "function"
    },
    {
      "inputs": [
        {
          "internalType": "string",
          "name": "",
          "type": "string"
        }
      ],
      "name": "domainToTokenId",
      "outputs": [
        {
          "internalType": "uint256",
          "name": "",
          "type": "uint256"
        }
      ],
      "stateMutability": "view",
      "type": "function"
    },
    {
      "inputs": [
        {
          "internalType": "uint256",
          "name": "tokenId",
          "type": "uint256"
        }
      ],
      "name": "getApproved",
      "outputs": [
        {
          "internalType": "address",
          "name": "",
          "type": "address"
        }
      ],
      "stateMutability": "view",
      "type": "function"
    },
    {
      "inputs": [
        {
          "internalType": "uint256",
          "name": "tokenId",
          "type": "uint256"
        }
      ],
      "name": "getBadgeMetadata",
      "outputs": [
        {
          "components": [
            {
              "internalType": "enum TrustBadgeNFT.BadgeType",
              "name": "badgeType",
              "type": "uint8"
            },
            {
              "internalType": "string",
              "name": "domain",
              "type": "string"
            },
            {
              "internalType": "uint256",
              "name": "trustScore",
              "type": "uint256"
            },
            {
              "internalType": "uint256",
              "name": "timestamp",
              "type": "uint256"
            },
            {
              "internalType": "string",
              "name": "ipfsHash",
              "type": "string"
            }
          ],
          "internalType": "struct TrustBadgeNFT.BadgeMetadata",
          "name": "",
          "type": "tuple"
        }
      ],
      "stateMutability": "view",
      "type": "function"
    },
    {
      "inputs": [
        {
          "internalType": "string",
          "name": "domain",
          "type": "string"
        }
      ],
      "name": "getDomainBadgeTokenId",
      "outputs": [
        {
          "internalType": "uint256",
          "name": "",
          "type": "uint256"
        }
      ],
      "stateMutability": "view",
      "type": "function"
    },
    {
      "inputs": [
        {
          "internalType": "address",
          "name": "user",
          "type": "address"
        }
      ],
      "name": "getUserBadges",
      "outputs": [
        {
          "internalType": "uint256[]",
          "name": "",
          "type": "uint256[]"
        }
      ],
      "stateMutability": "view",
      "type": "function"
    },
    {
      "inputs": [
        {
          "internalType": "string",
          "name": "domain",
          "type": "string"
        }
      ],
      "name": "hasVerifiedSourceBadge",
      "outputs": [
        {
          "internalType": "bool",
          "name": "",
          "type": "bool"
        }
      ],
      "stateMutability": "view",
      "type": "function"
    },
    {
      "inputs": [
        {
          "internalType": "address",
          "name": "owner",
          "type": "address"
        },
        {
          "internalType": "address",
          "name": "operator",
          "type": "address"
        }
      ],
      "name": "isApprovedForAll",
      "outputs": [
        {
          "internalType": "bool",
          "name": "",
          "type": "bool"
        }
      ],
      "stateMutability": "view",
      "type": "function"
    },
    {
      "inputs": [
        {
          "internalType": "address",
          "name": "recipient",
          "type": "address"
        },
        {
          "internalType": "uint256",
          "name": "reputation",
          "type": "uint256"
        }
      ],
      "name": "mintTrustedVerifierBadge",
      "outputs": [],
      "stateMutability": "nonpayable",
      "type": "function"
    },
    {
      "inputs": [
        {
          "internalType": "string",
          "name": "domain",
          "type": "string"
        },
        {
          "internalType": "uint256",
          "name": "trustScore",
          "type": "uint256"
        },
        {
          "internalType": "string",
          "name": "ipfsHash",
          "type": "string"
        },
        {
          "internalType": "address",
          "name": "recipient",
          "type": "address"
        }
      ],
      "name": "mintVerificationCertificate",
      "outputs": [],
      "stateMutability": "nonpayable",
      "type": "function"
    },
    {
      "inputs": [
        {
          "internalType": "string",
          "name": "domain",
          "type": "string"
        },
        {
          "internalType": "uint256",
          "name": "trustScore",
          "type": "uint256"
        },
        {
          "internalType": "string",
          "name": "ipfsHash",
          "type": "string"
        },
        {
          "internalType": "address",
          "name": "recipient",
          "type": "address"
        }
      ],
      "name": "mintVerifiedSourceBadge",
      "outputs": [],
      "stateMutability": "nonpayable",
      "type": "function"
    },
    {
      "inputs": [],
      "name": "name",
      "outputs": [
        {
          "internalType": "string",
          "name": "",
          "type": "string"
        }
      ],
      "stateMutability": "view",
      "type": "function"
    },
    {
      "inputs": [],
      "name": "owner",
      "outputs": [
        {
          "internalType": "address",
          "name": "",
          "type": "address"
        }
      ],
      "stateMutability": "view",
      "type": "function"
    },
    {
      "inputs": [
        {
          "internalType": "uint256",
          "name": "tokenId",
          "type": "uint256"
        }
      ],
      "name": "ownerOf",
      "outputs": [
        {
          "internalType": "address",
          "name": "",
          "type": "address"
        }
      ],
      "stateMutability": "view",
      "type": "function"
    },
    {
      "inputs": [],
      "name": "renounceOwnership",
      "outputs": [],
      "stateMutability": "nonpayable",
      "type": "function"
    },
    {
      "inputs": [
        {
          "internalType": "address",
          "name": "from",
          "type": "address"
        },
        {
          "internalType": "address",
          "name": "to",
          "type": "address"
        },
        {
          "internalType": "uint256",
          "name": "tokenId",
          "type": "uint256"
        }
      ],
      "name": "safeTransferFrom",
      "outputs": [],
      "stateMutability": "nonpayable",
      "type": "function"
    },
    {
      "inputs": [
        {
          "internalType": "address",
          "name": "from",
          "type": "address"
        },
        {
          "internalType": "address",
          "name": "to",
          "type": "address"
        },
        {
          "internalType": "uint256",
          "name": "tokenId",
          "type": "uint256"
        },
        {
          "internalType": "bytes",
          "name": "data",
          "type": "bytes"
        }
      ],
      "name": "safeTransferFrom",
      "outputs": [],
      "stateMutability": "nonpayable",
      "type": "function"
    },
    {
      "inputs": [
        {
          "internalType": "address",
          "name": "operator",
          "type": "address"
        },
        {
          "internalType": "bool",
          "name": "approved",
          "type": "bool"
        }
      ],
      "name": "setApprovalForAll",
      "outputs": [],
      "stateMutability": "nonpayable",
      "type": "function"
    },
    {
      "inputs": [
        {
          "internalType": "bytes4",
          "name": "interfaceId",
          "type": "bytes4"
        }
      ],
      "name": "supportsInterface",
      "outputs": [
        {
          "internalType": "bool",
          "name": "",
          "type": "bool"
        }
      ],
      "stateMutability": "view",
      "type": "function"
    },
    {
      "inputs": [],
      "name": "symbol",
      "outputs": [
        {
          "internalType": "string",
          "name": "",
          "type": "string"
        }
      ],
      "stateMutability": "view",
      "type": "function"
    },
    {
      "inputs": [
        {
          "internalType": "uint256",
          "name": "tokenId",
          "type": "uint256"
        }
      ],
      "name": "tokenURI",
      "outputs": [
        {
          "internalType": "string",
          "name": "",
          "type": "string"
        }
      ],
      "stateMutability": "view",
      "type": "function"
    },
    {
      "inputs": [
        {
          "internalType": "address",
          "name": "from",
          "type": "address"
        },
        {
          "internalType": "address",
          "name": "to",
          "type": "address"
        },
        {
          "internalType": "uint256",
          "name": "tokenId",
          "type": "uint256"
        }
      ],
      "name": "transferFrom",
      "outputs": [],
      "stateMutability": "nonpayable",
      "type": "function"
    },
    {
      "inputs": [
        {
          "internalType": "address",
          "name": "newOwner",
          "type": "address"
        }
      ],
      "name": "transferOwnership",
      "outputs": [],
      "stateMutability": "nonpayable",
      "type": "function"
    },
    {
      "inputs": [
        {
          "internalType": "address",
          "name": "",
          "type": "address"
        },
        {
          "internalType": "uint256",
          "name": "",
          "type": "uint256"
        }
      ],
      "name": "userBadges",
      "outputs": [
        {
          "internalType": "uint256",
          "name": "",
          "type": "uint256"
        }
      ],
      "stateMutability": "view",
      "type": "function"
    }
  ],
  "bytecode": "0x60806040523480156200001157600080fd5b5033604051806040016040528060128152602001715a657269667920547275737420426164676560701b815250604051806040016040528060038152602001622d2a2160e91b81525081600090816200006b9190620001b5565b5060016200007a8282620001b5565b5050506001600160a01b038116620000ac57604051631e4fbdf760e01b81526000600482015260240160405180910390fd5b620000b781620000be565b5062000281565b600780546001600160a01b038381166001600160a01b0319831681179093556040519116919082907f8be0079c531659141344cd1fd0a4f28419497f9722a3daafe3b4186f6b6457e090600090a35050565b634e487b7160e01b600052604160045260246000fd5b600181811c908216806200013b57607f821691505b6020821081036200015c57634e487b7160e01b600052602260045260246000fd5b50919050565b601f821115620001b057600081815260208120601f850160051c810160208610156200018b5750805b601f850160051c820191505b81811015620001ac5782815560010162000197565b5050505b505050565b81516001600160401b03811115620001d157620001d162000110565b620001e981620001e2845462000126565b8462000162565b602080601f831160018114620002215760008415620002085750858301515b600019600386901b1c1916600185901b178555620001ac565b600085815260208120601f198616915b82811015620002525788860151825594840194600190910190840162000231565b5085821015620002715787850151600019600388901b60f8161c191681555b5050505050600190811b01905550565b6121d480620002916000396000f3fe608060405234801561001057600080fd5b50600436106101c45760003560e01c806370a08231116100f9578063bca6eec411610097578063df91cc2311610071578063df91cc23146103d4578063e4de973d146103e7578063e985e9c51461040b578063f2fde38b1461041e57600080fd5b8063bca6eec414610376578063c87b56dd146103a1578063d19b6106146103b457600080fd5b80638da5cb5b116100d35780638da5cb5b1461033757806395d89b4114610348578063a22cb46514610350578063b88d4fde1461036357600080fd5b806370a0823114610309578063715018a61461031c57806386598b7e1461032457600080fd5b8063360d014d116101665780634d263e2b116101405780634d263e2b146102bd578063599201d7146102d057806359cfa1ba146102e35780636352211e146102f657600080fd5b8063360d014d1461028257806337c245fe1461028a57806342842e0e146102aa57600080fd5b8063095ea7b3116101a2578063095ea7b3146102315780630a41c8331461024657806323b872dd146102595780632a89c8c01461026c57600080fd5b806301ffc9a7146101c957806306fdde03146101f1578063081812fc14610206575b600080fd5b6101dc6101d7366004611a66565b610431565b60405190151581526020015b60405180910390f35b6101f9610442565b6040516101e89190611ad3565b610219610214366004611ae6565b6104d4565b6040516001600160a01b0390911681526020016101e8565b61024461023f366004611b1b565b6104fd565b005b610244610254366004611b1b565b61050c565b610244610267366004611b45565b6106ab565b610274600a81565b6040519081526020016101e8565b610274605081565b61029d610298366004611b81565b610736565b6040516101e89190611b9c565b6102446102b8366004611b45565b6107a2565b6102746102cb366004611c8c565b6107c2565b6102446102de366004611cc1565b6107ea565b6101dc6102f1366004611c8c565b6109fa565b610219610304366004611ae6565b610a24565b610274610317366004611b81565b610a2f565b610244610a77565b610244610332366004611cc1565b610a8b565b6007546001600160a01b0316610219565b6101f9610bb1565b61024461035e366004611d3f565b610bc0565b610244610371366004611d7b565b610bcb565b610274610384366004611c8c565b8051602081830181018051600a8252928201919093012091525481565b6101f96103af366004611ae6565b610be3565b6103c76103c2366004611ae6565b610bee565b6040516101e89190611e2f565b6102746103e2366004611b1b565b610da6565b6103fa6103f5366004611ae6565b610dd7565b6040516101e8959493929190611e8d565b6101dc610419366004611ed7565b610f1a565b61024461042c366004611b81565b610f48565b600061043c82610f86565b92915050565b60606000805461045190611f0a565b80601f016020809104026020016040519081016040528092919081815260200182805461047d90611f0a565b80156104ca5780601f1061049f576101008083540402835291602001916104ca565b820191906000526020600020905b8154815290600101906020018083116104ad57829003601f168201915b5050505050905090565b60006104df82610fab565b506000828152600460205260409020546001600160a01b031661043c565b610508828233610fe4565b5050565b610514610ff1565b600a81101561056a5760405162461bcd60e51b815260206004820152601c60248201527f52657075746174696f6e20746f6f206c6f7720666f722062616467650000000060448201526064015b60405180910390fd5b60088054908190600061057c83611f5a565b919050555061058b838261101e565b6040805160a0810190915280600181526040805160208181018352600080835281850192909252828401879052426060850152825180820184528281526080909401939093528481526009909252902081518154829060ff191660018360028111156105f9576105f9611df7565b0217905550602082015160018201906106129082611fb9565b5060408201516002820155606082015160038201556080820151600482019061063b9082611fb9565b5050506001600160a01b0383166000818152600b60209081526040808320805460018181018355918552929093209091018490555183917fd31ce73a880a018d4bc9bcd61def29133113e6f4591e9229e078464b47ccab549161069e9190612079565b60405180910390a3505050565b6001600160a01b0382166106d557604051633250574960e11b815260006004820152602401610561565b60006106e2838333611038565b9050836001600160a01b0316816001600160a01b031614610730576040516364283d7b60e01b81526001600160a01b0380861660048301526024820184905282166044820152606401610561565b50505050565b6001600160a01b0381166000908152600b602090815260409182902080548351818402810184019094528084526060939283018282801561079657602002820191906000526020600020905b815481526020019060010190808311610782575b50505050509050919050565b6107bd83838360405180602001604052806000815250610bcb565b505050565b6000600a826040516107d4919061209a565b9081526020016040518091039020549050919050565b6107f2610ff1565b60508310156108435760405162461bcd60e51b815260206004820152601d60248201527f54727573742073636f726520746f6f206c6f7720666f722062616467650000006044820152606401610561565b600a84604051610853919061209a565b9081526020016040518091039020546000146108b15760405162461bcd60e51b815260206004820152601f60248201527f426164676520616c72656164792065786973747320666f7220646f6d61696e006044820152606401610561565b6008805490819060006108c383611f5a565b91905055506108d2828261101e565b6040805160a0810182526000808252602080830189905282840188905242606084015260808301879052848252600990529190912081518154829060ff1916600183600281111561092557610925611df7565b02179055506020820151600182019061093e9082611fb9565b506040820151600282015560608201516003820155608082015160048201906109679082611fb9565b5090505080600a8660405161097c919061209a565b908152604080519182900360209081018320939093556001600160a01b0385166000818152600b8552918220805460018101825590835293822090930184905583917fd31ce73a880a018d4bc9bcd61def29133113e6f4591e9229e078464b47ccab54916109eb918a906120b6565b60405180910390a35050505050565b600080600a83604051610a0d919061209a565b908152602001604051809103902054119050919050565b600061043c82610fab565b60006001600160a01b038216610a5b576040516322718ad960e21b815260006004820152602401610561565b506001600160a01b031660009081526003602052604090205490565b610a7f610ff1565b610a8960006111b8565b565b610a93610ff1565b600880549081906000610aa583611f5a565b9190505550610ab4828261101e565b6040805160a081019091528060028152602080820188905260408083018890524260608401526080909201869052600084815260099091522081518154829060ff19166001836002811115610b0b57610b0b611df7565b021790555060208201516001820190610b249082611fb9565b50604082015160028201556060820151600382015560808201516004820190610b4d9082611fb9565b5050506001600160a01b0382166000818152600b60209081526040808320805460018101825590845291909220018390555182907fd31ce73a880a018d4bc9bcd61def29133113e6f4591e9229e078464b47ccab54906109eb906002908a906120b6565b60606001805461045190611f0a565b61050833838361120a565b610bd68484846106ab565b61073033858585856112a1565b606061043c826113cc565b610c216040805160a081019091528060008152602001606081526020016000815260200160008152602001606081525090565b60008281526009602052604090819020815160a081019092528054829060ff166002811115610c5257610c52611df7565b6002811115610c6357610c63611df7565b8152602001600182018054610c7790611f0a565b80601f0160208091040260200160405190810160405280929190818152602001828054610ca390611f0a565b8015610cf05780601f10610cc557610100808354040283529160200191610cf0565b820191906000526020600020905b815481529060010190602001808311610cd357829003601f168201915b505050505081526020016002820154815260200160038201548152602001600482018054610d1d90611f0a565b80601f0160208091040260200160405190810160405280929190818152602001828054610d4990611f0a565b8015610d965780601f10610d6b57610100808354040283529160200191610d96565b820191906000526020600020905b815481529060010190602001808311610d7957829003601f168201915b5050505050815250509050919050565b600b6020528160005260406000208181548110610dc257600080fd5b90600052602060002001600091509150505481565b6009602052600090815260409020805460018201805460ff9092169291610dfd90611f0a565b80601f0160208091040260200160405190810160405280929190818152602001828054610e2990611f0a565b8015610e765780601f10610e4b57610100808354040283529160200191610e76565b820191906000526020600020905b815481529060010190602001808311610e5957829003601f168201915b505050505090806002015490806003015490806004018054610e9790611f0a565b80601f0160208091040260200160405190810160405280929190818152602001828054610ec390611f0a565b8015610f105780601f10610ee557610100808354040283529160200191610f10565b820191906000526020600020905b815481529060010190602001808311610ef357829003601f168201915b5050505050905085565b6001600160a01b03918216600090815260056020908152604080832093909416825291909152205460ff1690565b610f50610ff1565b6001600160a01b038116610f7a57604051631e4fbdf760e01b815260006004820152602401610561565b610f83816111b8565b50565b60006001600160e01b03198216632483248360e11b148061043c575061043c826114dd565b6000818152600260205260408120546001600160a01b03168061043c57604051637e27328960e01b815260048101849052602401610561565b6107bd838383600161152d565b6007546001600160a01b03163314610a895760405163118cdaa760e01b8152336004820152602401610561565b610508828260405180602001604052806000815250611633565b6000828152600260205260408120546001600160a01b03168161105c86868661164b565b90506001600160a01b0382161580159061107e57506001600160a01b03861615155b156111af576001600160a01b0382166000908152600b60205260408120905b815481101561115157868282815481106110b9576110b96120d6565b90600052602060002001540361113f57815482906110d9906001906120ec565b815481106110e9576110e96120d6565b9060005260206000200154828281548110611106576111066120d6565b906000526020600020018190555081805480611124576111246120ff565b60019003818190600052602060002001600090559055611151565b8061114981611f5a565b91505061109d565b506001600160a01b038088166000818152600b6020908152604080832080546001810182559084529183209091018a905551919286169189917fd201fb416d8b5e50c9066521ecfc94d1821b6139fc0e7b39b3c680262c0fed9891a4505b95945050505050565b600780546001600160a01b038381166001600160a01b0319831681179093556040519116919082907f8be0079c531659141344cd1fd0a4f28419497f9722a3daafe3b4186f6b6457e090600090a35050565b6001600160a01b03821661123c57604051630b61174360e31b81526001600160a01b0383166004820152602401610561565b6001600160a01b03838116600081815260056020908152604080832094871680845294825291829020805460ff191686151590811790915591519182527f17307eab39ab6107e8899845ad3d59bd9653f200f220920489ca2b5937696c31910161069e565b6001600160a01b0383163b156113c557604051630a85bd0160e11b81526001600160a01b0384169063150b7a02906112e3908890889087908790600401612115565b6020604051808303816000875af192505050801561131e575060408051601f3d908101601f1916820190925261131b91810190612152565b60015b611387573d80801561134c576040519150601f19603f3d011682016040523d82523d6000602084013e611351565b606091505b50805160000361137f57604051633250574960e11b81526001600160a01b0385166004820152602401610561565b805160208201fd5b6001600160e01b03198116630a85bd0160e11b146113c357604051633250574960e11b81526001600160a01b0385166004820152602401610561565b505b5050505050565b60606113d782610fab565b50600082815260066020526040812080546113f190611f0a565b80601f016020809104026020016040519081016040528092919081815260200182805461141d90611f0a565b801561146a5780601f1061143f5761010080835404028352916020019161146a565b820191906000526020600020905b81548152906001019060200180831161144d57829003601f168201915b50505050509050600061148860408051602081019091526000815290565b9050805160000361149a575092915050565b8151156114cc5780826040516020016114b492919061216f565b60405160208183030381529060405292505050919050565b6114d584611744565b949350505050565b60006001600160e01b031982166380ac58cd60e01b148061150e57506001600160e01b03198216635b5e139f60e01b145b8061043c57506301ffc9a760e01b6001600160e01b031983161461043c565b808061154157506001600160a01b03821615155b1561160357600061155184610fab565b90506001600160a01b0383161580159061157d5750826001600160a01b0316816001600160a01b031614155b8015611590575061158e8184610f1a565b155b156115b95760405163a9fbf51f60e01b81526001600160a01b0384166004820152602401610561565b81156116015783856001600160a01b0316826001600160a01b03167f8c5be1e5ebec7d5bd14f71427d1e84f3dd0314c0f7b2291e5b200ac8c7c3b92560405160405180910390a45b505b5050600090815260046020526040902080546001600160a01b0319166001600160a01b0392909216919091179055565b61163d83836117b9565b6107bd3360008585856112a1565b6000828152600260205260408120546001600160a01b03908116908316156116785761167881848661181e565b6001600160a01b038116156116b65761169560008560008061152d565b6001600160a01b038116600090815260036020526040902080546000190190555b6001600160a01b038516156116e5576001600160a01b0385166000908152600360205260409020805460010190555b60008481526002602052604080822080546001600160a01b0319166001600160a01b0389811691821790925591518793918516917fddf252ad1be2c89b69c2b068fc378daa952ba7f163c4a11628f55a4df523b3ef91a4949350505050565b606061174f82610fab565b50600061176760408051602081019091526000815290565b9050600081511161178757604051806020016040528060008152506117b2565b8061179184611882565b6040516020016117a292919061216f565b6040516020818303038152906040525b9392505050565b6001600160a01b0382166117e357604051633250574960e11b815260006004820152602401610561565b60006117f183836000611038565b90506001600160a01b038116156107bd576040516339e3563760e11b815260006004820152602401610561565b611829838383611915565b6107bd576001600160a01b03831661185757604051637e27328960e01b815260048101829052602401610561565b60405163177e802f60e01b81526001600160a01b038316600482015260248101829052604401610561565b6060600061188f83611978565b600101905060008167ffffffffffffffff8111156118af576118af611be0565b6040519080825280601f01601f1916602001820160405280156118d9576020820181803683370190505b5090508181016020015b600019016f181899199a1a9b1b9c1cb0b131b232b360811b600a86061a8153600a85049450846118e357509392505050565b60006001600160a01b038316158015906114d55750826001600160a01b0316846001600160a01b0316148061194f575061194f8484610f1a565b806114d55750506000908152600460205260409020546001600160a01b03908116911614919050565b60008072184f03e93ff9f4daa797ed6e38ed64bf6a1f0160401b83106119b75772184f03e93ff9f4daa797ed6e38ed64bf6a1f0160401b830492506040015b6d04ee2d6d415b85acef810000000083106119e3576d04ee2d6d415b85acef8100000000830492506020015b662386f26fc100008310611a0157662386f26fc10000830492506010015b6305f5e1008310611a19576305f5e100830492506008015b6127108310611a2d57612710830492506004015b60648310611a3f576064830492506002015b600a831061043c5760010192915050565b6001600160e01b031981168114610f8357600080fd5b600060208284031215611a7857600080fd5b81356117b281611a50565b60005b83811015611a9e578181015183820152602001611a86565b50506000910152565b60008151808452611abf816020860160208601611a83565b601f01601f19169290920160200192915050565b6020815260006117b26020830184611aa7565b600060208284031215611af857600080fd5b5035919050565b80356001600160a01b0381168114611b1657600080fd5b919050565b60008060408385031215611b2e57600080fd5b611b3783611aff565b946020939093013593505050565b600080600060608486031215611b5a57600080fd5b611b6384611aff565b9250611b7160208501611aff565b9150604084013590509250925092565b600060208284031215611b9357600080fd5b6117b282611aff565b6020808252825182820181905260009190848201906040850190845b81811015611bd457835183529284019291840191600101611bb8565b50909695505050505050565b634e487b7160e01b600052604160045260246000fd5b600067ffffffffffffffff80841115611c1157611c11611be0565b604051601f8501601f19908116603f01168101908282118183101715611c3957611c39611be0565b81604052809350858152868686011115611c5257600080fd5b858560208301376000602087830101525050509392505050565b600082601f830112611c7d57600080fd5b6117b283833560208501611bf6565b600060208284031215611c9e57600080fd5b813567ffffffffffffffff811115611cb557600080fd5b6114d584828501611c6c565b60008060008060808587031215611cd757600080fd5b843567ffffffffffffffff80821115611cef57600080fd5b611cfb88838901611c6c565b9550602087013594506040870135915080821115611d1857600080fd5b50611d2587828801611c6c565b925050611d3460608601611aff565b905092959194509250565b60008060408385031215611d5257600080fd5b611d5b83611aff565b915060208301358015158114611d7057600080fd5b809150509250929050565b60008060008060808587031215611d9157600080fd5b611d9a85611aff565b9350611da860208601611aff565b925060408501359150606085013567ffffffffffffffff811115611dcb57600080fd5b8501601f81018713611ddc57600080fd5b611deb87823560208401611bf6565b91505092959194509250565b634e487b7160e01b600052602160045260246000fd5b60038110611e2b57634e487b7160e01b600052602160045260246000fd5b9052565b60208152611e41602082018351611e0d565b6000602083015160a06040840152611e5c60c0840182611aa7565b905060408401516060840152606084015160808401526080840151601f198483030160a08501526111af8282611aa7565b611e978187611e0d565b60a060208201526000611ead60a0830187611aa7565b8560408401528460608401528281036080840152611ecb8185611aa7565b98975050505050505050565b60008060408385031215611eea57600080fd5b611ef383611aff565b9150611f0160208401611aff565b90509250929050565b600181811c90821680611f1e57607f821691505b602082108103611f3e57634e487b7160e01b600052602260045260246000fd5b50919050565b634e487b7160e01b600052601160045260246000fd5b600060018201611f6c57611f6c611f44565b5060010190565b601f8211156107bd57600081815260208120601f850160051c81016020861015611f9a5750805b601f850160051c820191505b818110156113c357828155600101611fa6565b815167ffffffffffffffff811115611fd357611fd3611be0565b611fe781611fe18454611f0a565b84611f73565b602080601f83116001811461201c57600084156120045750858301515b600019600386901b1c1916600185901b1785556113c3565b600085815260208120601f198616915b8281101561204b5788860151825594840194600190910190840161202c565b50858210156120695787850151600019600388901b60f8161c191681555b5050505050600190811b01905550565b6120838183611e0d565b604060208201819052600090820152606001919050565b600082516120ac818460208701611a83565b9190910192915050565b6120c08184611e0d565b6040602082015260006114d56040830184611aa7565b634e487b7160e01b600052603260045260246000fd5b8181038181111561043c5761043c611f44565b634e487b7160e01b600052603160045260246000fd5b6001600160a01b038581168252841660208201526040810183905260806060820181905260009061214890830184611aa7565b9695505050505050565b60006020828403121561216457600080fd5b81516117b281611a50565b60008351612181818460208801611a83565b835190830190612195818360208801611a83565b0194935050505056fea264697066735822122029d53349928c7f27aac79587dba76f0080166016753748f5274a8cf3e1c8528664736f6c63430008140033",
  "linkReferences": {},
  "deployedLinkReferences": {}
}