{
  "_format": "hh-sol-artifact-1",
  "contractName": "ZerifyToken",
  "sourceName": "contracts/ZerifyToken.sol",
  "abi": [
    {
      "inputs": [],
      "stateMutability": "nonpayable",
      "type": "constructor"
    },
    {
      "inputs": [
        {
          "internalType": "address",
          "name": "spender",
          "type": "address"
        },
        {
          "internalType": "uint256",
          "name": "allowance",
          "type": "uint256"
        },
        {
          "internalType": "uint256",
          "name": "needed",
          "type": "uint256"
        }
      ],
      "name": "ERC20InsufficientAllowance",
      "type": "error"
    },
    {
      "inputs": [
        {
          "internalType": "address",
          "name": "sender",
          "type": "address"
        },
        {
          "internalType": "uint256",
          "name": "balance",
          "type": "uint256"
        },
        {
          "internalType": "uint256",
          "name": "needed",
          "type": "uint256"
        }
      ],
      "name": "ERC20InsufficientBalance",
      "type": "error"
    },
    {
      "inputs": [
        {
          "internalType": "address",
          "name": "approver",
          "type": "address"
        }
      ],
      "name": "ERC20InvalidApprover",
      "type": "error"
    },
    {
      "inputs": [
        {
          "internalType": "address",
          "name": "receiver",
          "type": "address"
        }
      ],
      "name": "ERC20InvalidReceiver",
      "type": "error"
    },
    {
      "inputs": [
        {
          "internalType": "address",
          "name": "sender",
          "type": "address"
        }
      ],
      "name": "ERC20InvalidSender",
      "type": "error"
    },
    {
      "inputs": [
        {
          "internalType": "address",
          "name": "spender",
          "type": "address"
        }
      ],
      "name": "ERC20InvalidSpender",
      "type": "error"
    },
    {
      "inputs": [],
      "name": "EnforcedPause",
      "type": "error"
    },
    {
      "inputs": [],
      "name": "ExpectedPause",
      "type": "error"
    },
    {
      "inputs": [
        {
          "internalType": "address",
          "name": "owner",
          "type": "address"
        }
      ],
      "name": "OwnableInvalidOwner",
      "type": "error"
    },
    {
      "inputs": [
        {
          "internalType": "address",
          "name": "account",
          "type": "address"
        }
      ],
      "name": "OwnableUnauthorizedAccount",
      "type": "error"
    },
    {
      "anonymous": false,
      "inputs": [
        {
          "indexed": true,
          "internalType": "address",
          "name": "owner",
          "type": "address"
        },
        {
          "indexed": true,
          "internalType": "address",
          "name": "spender",
          "type": "address"
        },
        {
          "indexed": false,
          "internalType": "uint256",
          "name": "value",
          "type": "uint256"
        }
      ],
      "name": "Approval",
      "type": "event"
    },
    {
      "anonymous": false,
      "inputs": [
        {
          "indexed": true,
          "internalType": "address",
          "name": "previousOwner",
          "type": "address"
        },
        {
          "indexed": true,
          "internalType": "address",
          "name": "newOwner",
          "type": "address"
        }
      ],
      "name": "OwnershipTransferred",
      "type": "event"
    },
    {
      "anonymous": false,
      "inputs": [
        {
          "indexed": false,
          "internalType": "address",
          "name": "account",
          "type": "address"
        }
      ],
      "name": "Paused",
      "type": "event"
    },
    {
      "anonymous": false,
      "inputs": [
        {
          "indexed": true,
          "internalType": "address",
          "name": "user",
          "type": "address"
        },
        {
          "indexed": false,
          "internalType": "uint256",
          "name": "newReputation",
          "type": "uint256"
        }
      ],
      "name": "ReputationUpdated",
      "type": "event"
    },
    {
      "anonymous": false,
      "inputs": [
        {
          "indexed": true,
          "internalType": "address",
          "name": "user",
          "type": "address"
        },
        {
          "indexed": false,
          "internalType": "uint256",
          "name": "amount",
          "type": "uint256"
        },
        {
          "indexed": false,
          "internalType": "string",
          "name": "reason",
          "type": "string"
        }
      ],
      "name": "TokensRewarded",
      "type": "event"
    },
    {
      "anonymous": false,
      "inputs": [
        {
          "indexed": true,
          "internalType": "address",
          "name": "user",
          "type": "address"
        },
        {
          "indexed": false,
          "internalType": "uint256",
          "name": "amount",
          "type": "uint256"
        }
      ],
      "name": "TokensStaked",
      "type": "event"
    },
    {
      "anonymous": false,
      "inputs": [
        {
          "indexed": true,
          "internalType": "address",
          "name": "user",
          "type": "address"
        },
        {
          "indexed": false,
          "internalType": "uint256",
          "name": "amount",
          "type": "uint256"
        }
      ],
      "name": "TokensUnstaked",
      "type": "event"
    },
    {
      "anonymous": false,
      "inputs": [
        {
          "indexed": true,
          "internalType": "address",
          "name": "from",
          "type": "address"
        },
        {
          "indexed": true,
          "internalType": "address",
          "name": "to",
          "type": "address"
        },
        {
          "indexed": false,
          "internalType": "uint256",
          "name": "value",
          "type": "uint256"
        }
      ],
      "name": "Transfer",
      "type": "event"
    },
    {
      "anonymous": false,
      "inputs": [
        {
          "indexed": false,
          "internalType": "address",
          "name": "account",
          "type": "address"
        }
      ],
      "name": "Unpaused",
      "type": "event"
    },
    {
      "anonymous": false,
      "inputs": [
        {
          "indexed": true,
          "internalType": "address",
          "name": "user",
          "type": "address"
        }
      ],
      "name": "ValidatorRegistered",
      "type": "event"
    },
    {
      "inputs": [],
      "name": "INITIAL_SUPPLY",
      "outputs": [
        {
          "internalType": "uint256",
          "name": "",
          "type": "uint256"
        }
      ],
      "stateMutability": "view",
      "type": "function"
    },
    {
      "inputs": [],
      "name": "REWARD_PER_VERIFICATION",
      "outputs": [
        {
          "internalType": "uint256",
          "name": "",
          "type": "uint256"
        }
      ],
      "stateMutability": "view",
      "type": "function"
    },
    {
      "inputs": [],
      "name": "STAKE_REQUIREMENT",
      "outputs": [
        {
          "internalType": "uint256",
          "name": "",
          "type": "uint256"
        }
      ],
      "stateMutability": "view",
      "type": "function"
    },
    {
      "inputs": [
        {
          "internalType": "address",
          "name": "owner",
          "type": "address"
        },
        {
          "internalType": "address",
          "name": "spender",
          "type": "address"
        }
      ],
      "name": "allowance",
      "outputs": [
        {
          "internalType": "uint256",
          "name": "",
          "type": "uint256"
        }
      ],
      "stateMutability": "view",
      "type": "function"
    },
    {
      "inputs": [
        {
          "internalType": "address",
          "name": "spender",
          "type": "address"
        },
        {
          "internalType": "uint256",
          "name": "value",
          "type": "uint256"
        }
      ],
      "name": "approve",
      "outputs": [
        {
          "internalType": "bool",
          "name": "",
          "type": "bool"
        }
      ],
      "stateMutability": "nonpayable",
      "type": "function"
    },
    {
      "inputs": [
        {
          "internalType": "address",
          "name": "account",
          "type": "address"
        }
      ],
      "name": "balanceOf",
      "outputs": [
        {
          "internalType": "uint256",
          "name": "",
          "type": "uint256"
        }
      ],
      "stateMutability": "view",
      "type": "function"
    },
    {
      "inputs": [],
      "name": "decimals",
      "outputs": [
        {
          "internalType": "uint8",
          "name": "",
          "type": "uint8"
        }
      ],
      "stateMutability": "view",
      "type": "function"
    },
    {
      "inputs": [
        {
          "internalType": "address",
          "name": "user",
          "type": "address"
        }
      ],
      "name": "getReputation",
      "outputs": [
        {
          "internalType": "uint256",
          "name": "",
          "type": "uint256"
        }
      ],
      "stateMutability": "view",
      "type": "function"
    },
    {
      "inputs": [
        {
          "internalType": "address",
          "name": "user",
          "type": "address"
        }
      ],
      "name": "isValidator",
      "outputs": [
        {
          "internalType": "bool",
          "name": "",
          "type": "bool"
        }
      ],
      "stateMutability": "view",
      "type": "function"
    },
    {
      "inputs": [],
      "name": "name",
      "outputs": [
        {
          "internalType": "string",
          "name": "",
          "type": "string"
        }
      ],
      "stateMutability": "view",
      "type": "function"
    },
    {
      "inputs": [],
      "name": "owner",
      "outputs": [
        {
          "internalType": "address",
          "name": "",
          "type": "address"
        }
      ],
      "stateMutability": "view",
      "type": "function"
    },
    {
      "inputs": [],
      "name": "paused",
      "outputs": [
        {
          "internalType": "bool",
          "name": "",
          "type": "bool"
        }
      ],
      "stateMutability": "view",
      "type": "function"
    },
    {
      "inputs": [],
      "name": "renounceOwnership",
      "outputs": [],
      "stateMutability": "nonpayable",
      "type": "function"
    },
    {
      "inputs": [
        {
          "internalType": "address",
          "name": "",
          "type": "address"
        }
      ],
      "name": "reputation",
      "outputs": [
        {
          "internalType": "uint256",
          "name": "",
          "type": "uint256"
        }
      ],
      "stateMutability": "view",
      "type": "function"
    },
    {
      "inputs": [
        {
          "internalType": "address",
          "name": "user",
          "type": "address"
        },
        {
          "internalType": "string",
          "name": "reason",
          "type": "string"
        }
      ],
      "name": "rewardTokens",
      "outputs": [],
      "stateMutability": "nonpayable",
      "type": "function"
    },
    {
      "inputs": [
        {
          "internalType": "address",
          "name": "validator",
          "type": "address"
        },
        {
          "internalType": "uint256",
          "name": "amount",
          "type": "uint256"
        }
      ],
      "name": "slashValidator",
      "outputs": [],
      "stateMutability": "nonpayable",
      "type": "function"
    },
    {
      "inputs": [
        {
          "internalType": "uint256",
          "name": "amount",
          "type": "uint256"
        }
      ],
      "name": "stakeTokens",
      "outputs": [],
      "stateMutability": "nonpayable",
      "type": "function"
    },
    {
      "inputs": [
        {
          "internalType": "address",
          "name": "",
          "type": "address"
        }
      ],
      "name": "stakes",
      "outputs": [
        {
          "internalType": "uint256",
          "name": "",
          "type": "uint256"
        }
      ],
      "stateMutability": "view",
      "type": "function"
    },
    {
      "inputs": [],
      "name": "symbol",
      "outputs": [
        {
          "internalType": "string",
          "name": "",
          "type": "string"
        }
      ],
      "stateMutability": "view",
      "type": "function"
    },
    {
      "inputs": [],
      "name": "totalSupply",
      "outputs": [
        {
          "internalType": "uint256",
          "name": "",
          "type": "uint256"
        }
      ],
      "stateMutability": "view",
      "type": "function"
    },
    {
      "inputs": [
        {
          "internalType": "address",
          "name": "to",
          "type": "address"
        },
        {
          "internalType": "uint256",
          "name": "value",
          "type": "uint256"
        }
      ],
      "name": "transfer",
      "outputs": [
        {
          "internalType": "bool",
          "name": "",
          "type": "bool"
        }
      ],
      "stateMutability": "nonpayable",
      "type": "function"
    },
    {
      "inputs": [
        {
          "internalType": "address",
          "name": "from",
          "type": "address"
        },
        {
          "internalType": "address",
          "name": "to",
          "type": "address"
        },
        {
          "internalType": "uint256",
          "name": "value",
          "type": "uint256"
        }
      ],
      "name": "transferFrom",
      "outputs": [
        {
          "internalType": "bool",
          "name": "",
          "type": "bool"
        }
      ],
      "stateMutability": "nonpayable",
      "type": "function"
    },
    {
      "inputs": [
        {
          "internalType": "address",
          "name": "newOwner",
          "type": "address"
        }
      ],
      "name": "transferOwnership",
      "outputs": [],
      "stateMutability": "nonpayable",
      "type": "function"
    },
    {
      "inputs": [
        {
          "internalType": "uint256",
          "name": "amount",
          "type": "uint256"
        }
      ],
      "name": "unstakeTokens",
      "outputs": [],
      "stateMutability": "nonpayable",
      "type": "function"
    },
    {
      "inputs": [
        {
          "internalType": "address",
          "name": "",
          "type": "address"
        }
      ],
      "name": "validators",
      "outputs": [
        {
          "internalType": "bool",
          "name": "",
          "type": "bool"
        }
      ],
      "stateMutability": "view",
      "type": "function"
    }
  ],
  "bytecode": "0x60806040523480156200001157600080fd5b50336040518060400160405280600c81526020016b2d32b934b33c902a37b5b2b760a11b815250604051806040016040528060068152602001655a455249465960d01b81525081600390816200006891906200033a565b5060046200007782826200033a565b5050506001600160a01b038116620000aa57604051631e4fbdf760e01b8152600060048201526024015b60405180910390fd5b620000b581620000d2565b50620000cc3369d3c21bcecceda100000062000124565b6200042e565b600580546001600160a01b038381166001600160a01b0319831681179093556040519116919082907f8be0079c531659141344cd1fd0a4f28419497f9722a3daafe3b4186f6b6457e090600090a35050565b6001600160a01b038216620001505760405163ec442f0560e01b815260006004820152602401620000a1565b6200015e6000838362000162565b5050565b6001600160a01b0383166200019157806002600082825462000185919062000406565b90915550620002059050565b6001600160a01b03831660009081526020819052604090205481811015620001e65760405163391434e360e21b81526001600160a01b03851660048201526024810182905260448101839052606401620000a1565b6001600160a01b03841660009081526020819052604090209082900390555b6001600160a01b038216620002235760028054829003905562000242565b6001600160a01b03821660009081526020819052604090208054820190555b816001600160a01b0316836001600160a01b03167fddf252ad1be2c89b69c2b068fc378daa952ba7f163c4a11628f55a4df523b3ef836040516200028891815260200190565b60405180910390a3505050565b634e487b7160e01b600052604160045260246000fd5b600181811c90821680620002c057607f821691505b602082108103620002e157634e487b7160e01b600052602260045260246000fd5b50919050565b601f8211156200033557600081815260208120601f850160051c81016020861015620003105750805b601f850160051c820191505b8181101562000331578281556001016200031c565b5050505b505050565b81516001600160401b0381111562000356576200035662000295565b6200036e81620003678454620002ab565b84620002e7565b602080601f831160018114620003a657600084156200038d5750858301515b600019600386901b1c1916600185901b17855562000331565b600085815260208120601f198616915b82811015620003d757888601518255948401946001909101908401620003b6565b5085821015620003f65787850151600019600388901b60f8161c191681555b5050505050600190811b01905550565b808201808211156200042857634e487b7160e01b600052601160045260246000fd5b92915050565b6110e0806200043e6000396000f3fe608060405234801561001057600080fd5b50600436106101735760003560e01c80637547c7a3116100de578063c118258b11610097578063e094a56211610071578063e094a5621461037b578063f2fde38b1461038a578063fa52c7d81461039d578063facd743b146103c057600080fd5b8063c118258b1461031f578063cffb1fef1461032f578063dd62ed3e1461034257600080fd5b80637547c7a31461028d5780638da5cb5b146102a057806395d89b41146102bb5780639c89a0e2146102c3578063a9059cbb146102ec578063b9f79451146102ff57600080fd5b8063313ce56711610130578063313ce567146102135780633e4208ef146102225780635c975abb14610237578063608e4dd01461024957806370a082311461025c578063715018a61461028557600080fd5b806306fdde0314610178578063095ea7b31461019657806316934fc4146101b957806318160ddd146101e757806323b872dd146101ef5780632ff2e9dc14610202575b600080fd5b6101806103ec565b60405161018d9190610e38565b60405180910390f35b6101a96101a4366004610e6e565b61047e565b604051901515815260200161018d565b6101d96101c7366004610e98565b60066020526000908152604090205481565b60405190815260200161018d565b6002546101d9565b6101a96101fd366004610eb3565b610498565b6101d969d3c21bcecceda100000081565b6040516012815260200161018d565b610235610230366004610e6e565b6104bc565b005b600554600160a01b900460ff166101a9565b610235610257366004610eef565b6106a9565b6101d961026a366004610e98565b6001600160a01b031660009081526020819052604090205490565b61023561079c565b61023561029b366004610eef565b6107b0565b6005546040516001600160a01b03909116815260200161018d565b610180610910565b6101d96102d1366004610e98565b6001600160a01b031660009081526008602052604090205490565b6101a96102fa366004610e6e565b61091f565b6101d961030d366004610e98565b60086020526000908152604090205481565b6101d9683635c9adc5dea0000081565b61023561033d366004610f1e565b61092d565b6101d9610350366004610fe0565b6001600160a01b03918216600090815260016020908152604080832093909416825291909152205490565b6101d9678ac7230489e8000081565b610235610398366004610e98565b610a0c565b6101a96103ab366004610e98565b60076020526000908152604090205460ff1681565b6101a96103ce366004610e98565b6001600160a01b031660009081526007602052604090205460ff1690565b6060600380546103fb90611013565b80601f016020809104026020016040519081016040528092919081815260200182805461042790611013565b80156104745780601f1061044957610100808354040283529160200191610474565b820191906000526020600020905b81548152906001019060200180831161045757829003601f168201915b5050505050905090565b60003361048c818585610a4a565b60019150505b92915050565b6000336104a6858285610a5c565b6104b1858585610adb565b506001949350505050565b6104c4610b3a565b6001600160a01b03821660009081526007602052604090205460ff166105235760405162461bcd60e51b815260206004820152600f60248201526e2737ba1030903b30b634b230ba37b960891b60448201526064015b60405180910390fd5b6001600160a01b03821660009081526006602052604090205481111561058b5760405162461bcd60e51b815260206004820152601b60248201527f496e73756666696369656e74207374616b6520746f20736c6173680000000000604482015260640161051a565b6001600160a01b038216600090815260066020526040812080548392906105b3908490611063565b90915550506001600160a01b0382166000908152600860205260409020546105dc576000610601565b6001600160a01b03821660009081526008602052604090205461060190600190611063565b6001600160a01b038316600090815260086020908152604080832093909355600690522054683635c9adc5dea000001115610657576001600160a01b0382166000908152600760205260409020805460ff191690555b6001600160a01b0382166000818152600860209081526040918290205491519182527ffc577563f1b9a0461e24abef1e1fcc0d33d3d881f20b5df6dda59de4aae2c82191015b60405180910390a25050565b336000908152600660205260409020548111156106fd5760405162461bcd60e51b8152602060048201526012602482015271496e73756666696369656e74207374616b6560701b604482015260640161051a565b336000908152600660205260408120805483929061071c908490611063565b909155505033600090815260066020526040902054683635c9adc5dea00000111561075957336000908152600760205260409020805460ff191690555b610764303383610adb565b60405181815233907f9845e367b683334e5c0b12d7b81721ac518e649376fa65e3d68324e8f34f26799060200160405180910390a250565b6107a4610b3a565b6107ae6000610b67565b565b683635c9adc5dea000008110156108095760405162461bcd60e51b815260206004820152601960248201527f496e73756666696369656e74207374616b6520616d6f756e7400000000000000604482015260640161051a565b3360009081526020819052604090205481111561085f5760405162461bcd60e51b8152602060048201526014602482015273496e73756666696369656e742062616c616e636560601b604482015260640161051a565b61086a333083610adb565b3360009081526006602052604081208054839290610889908490611076565b90915550503360008181526007602052604090819020805460ff19166001179055517fb539ca1e5c8d398ddf1c41c30166f33404941683be4683319b57669a93dad4ef906108da9084815260200190565b60405180910390a260405133907fd09501348473474a20c772c79c653e1fd7e8b437e418fe235d277d2c8885325190600090a250565b6060600480546103fb90611013565b60003361048c818585610adb565b610935610b3a565b61094782678ac7230489e80000610bb9565b6001600160a01b0382166000908152600860205260408120805460019290610970908490611076565b92505081905550816001600160a01b03167fb969d134776a7f04430dbbcac4e68734b1c6c5adcecbf68c3cbe6a9a4f2c8a1d678ac7230489e80000836040516109ba929190611089565b60405180910390a26001600160a01b0382166000818152600860209081526040918290205491519182527ffc577563f1b9a0461e24abef1e1fcc0d33d3d881f20b5df6dda59de4aae2c821910161069d565b610a14610b3a565b6001600160a01b038116610a3e57604051631e4fbdf760e01b81526000600482015260240161051a565b610a4781610b67565b50565b610a578383836001610bf3565b505050565b6001600160a01b03838116600090815260016020908152604080832093861683529290522054600019811015610ad55781811015610ac657604051637dc7a0d960e11b81526001600160a01b0384166004820152602481018290526044810183905260640161051a565b610ad584848484036000610bf3565b50505050565b6001600160a01b038316610b0557604051634b637e8f60e11b81526000600482015260240161051a565b6001600160a01b038216610b2f5760405163ec442f0560e01b81526000600482015260240161051a565b610a57838383610cc8565b6005546001600160a01b031633146107ae5760405163118cdaa760e01b815233600482015260240161051a565b600580546001600160a01b038381166001600160a01b0319831681179093556040519116919082907f8be0079c531659141344cd1fd0a4f28419497f9722a3daafe3b4186f6b6457e090600090a35050565b6001600160a01b038216610be35760405163ec442f0560e01b81526000600482015260240161051a565b610bef60008383610cc8565b5050565b6001600160a01b038416610c1d5760405163e602df0560e01b81526000600482015260240161051a565b6001600160a01b038316610c4757604051634a1406b160e11b81526000600482015260240161051a565b6001600160a01b0380851660009081526001602090815260408083209387168352929052208290558015610ad557826001600160a01b0316846001600160a01b03167f8c5be1e5ebec7d5bd14f71427d1e84f3dd0314c0f7b2291e5b200ac8c7c3b92584604051610cba91815260200190565b60405180910390a350505050565b6001600160a01b038316610cf3578060026000828254610ce89190611076565b90915550610d659050565b6001600160a01b03831660009081526020819052604090205481811015610d465760405163391434e360e21b81526001600160a01b0385166004820152602481018290526044810183905260640161051a565b6001600160a01b03841660009081526020819052604090209082900390555b6001600160a01b038216610d8157600280548290039055610da0565b6001600160a01b03821660009081526020819052604090208054820190555b816001600160a01b0316836001600160a01b03167fddf252ad1be2c89b69c2b068fc378daa952ba7f163c4a11628f55a4df523b3ef83604051610de591815260200190565b60405180910390a3505050565b6000815180845260005b81811015610e1857602081850181015186830182015201610dfc565b506000602082860101526020601f19601f83011685010191505092915050565b602081526000610e4b6020830184610df2565b9392505050565b80356001600160a01b0381168114610e6957600080fd5b919050565b60008060408385031215610e8157600080fd5b610e8a83610e52565b946020939093013593505050565b600060208284031215610eaa57600080fd5b610e4b82610e52565b600080600060608486031215610ec857600080fd5b610ed184610e52565b9250610edf60208501610e52565b9150604084013590509250925092565b600060208284031215610f0157600080fd5b5035919050565b634e487b7160e01b600052604160045260246000fd5b60008060408385031215610f3157600080fd5b610f3a83610e52565b9150602083013567ffffffffffffffff80821115610f5757600080fd5b818501915085601f830112610f6b57600080fd5b813581811115610f7d57610f7d610f08565b604051601f8201601f19908116603f01168101908382118183101715610fa557610fa5610f08565b81604052828152886020848701011115610fbe57600080fd5b8260208601602083013760006020848301015280955050505050509250929050565b60008060408385031215610ff357600080fd5b610ffc83610e52565b915061100a60208401610e52565b90509250929050565b600181811c9082168061102757607f821691505b60208210810361104757634e487b7160e01b600052602260045260246000fd5b50919050565b634e487b7160e01b600052601160045260246000fd5b818103818111156104925761049261104d565b808201808211156104925761049261104d565b8281526040602082015260006110a26040830184610df2565b94935050505056fea26469706673582212205a4ea6bbf21b52d81fbdf68846de0a97602d0eb219937409db93fe777794cbe364736f6c63430008140033",
  "linkReferences": {},
  "deployedLinkReferences": {}
}