{
  "_format": "hh-sol-artifact-1",
  "contractName": "ZerifyToken",
  "sourceName": "contracts/ZerifyToken.sol",
  "abi": [
    {
      "inputs": [],
      "stateMutability": "nonpayable",
      "type": "constructor"
    },
    {
      "inputs": [
        {
          "internalType": "address",
          "name": "spender",
          "type": "address"
        },
        {
          "internalType": "uint256",
          "name": "allowance",
          "type": "uint256"
        },
        {
          "internalType": "uint256",
          "name": "needed",
          "type": "uint256"
        }
      ],
      "name": "ERC20InsufficientAllowance",
      "type": "error"
    },
    {
      "inputs": [
        {
          "internalType": "address",
          "name": "sender",
          "type": "address"
        },
        {
          "internalType": "uint256",
          "name": "balance",
          "type": "uint256"
        },
        {
          "internalType": "uint256",
          "name": "needed",
          "type": "uint256"
        }
      ],
      "name": "ERC20InsufficientBalance",
      "type": "error"
    },
    {
      "inputs": [
        {
          "internalType": "address",
          "name": "approver",
          "type": "address"
        }
      ],
      "name": "ERC20InvalidApprover",
      "type": "error"
    },
    {
      "inputs": [
        {
          "internalType": "address",
          "name": "receiver",
          "type": "address"
        }
      ],
      "name": "ERC20InvalidReceiver",
      "type": "error"
    },
    {
      "inputs": [
        {
          "internalType": "address",
          "name": "sender",
          "type": "address"
        }
      ],
      "name": "ERC20InvalidSender",
      "type": "error"
    },
    {
      "inputs": [
        {
          "internalType": "address",
          "name": "spender",
          "type": "address"
        }
      ],
      "name": "ERC20InvalidSpender",
      "type": "error"
    },
    {
      "inputs": [],
      "name": "EnforcedPause",
      "type": "error"
    },
    {
      "inputs": [],
      "name": "ExpectedPause",
      "type": "error"
    },
    {
      "inputs": [
        {
          "internalType": "address",
          "name": "owner",
          "type": "address"
        }
      ],
      "name": "OwnableInvalidOwner",
      "type": "error"
    },
    {
      "inputs": [
        {
          "internalType": "address",
          "name": "account",
          "type": "address"
        }
      ],
      "name": "OwnableUnauthorizedAccount",
      "type": "error"
    },
    {
      "anonymous": false,
      "inputs": [
        {
          "indexed": true,
          "internalType": "address",
          "name": "owner",
          "type": "address"
        },
        {
          "indexed": true,
          "internalType": "address",
          "name": "spender",
          "type": "address"
        },
        {
          "indexed": false,
          "internalType": "uint256",
          "name": "value",
          "type": "uint256"
        }
      ],
      "name": "Approval",
      "type": "event"
    },
    {
      "anonymous": false,
      "inputs": [
        {
          "indexed": true,
          "internalType": "address",
          "name": "user",
          "type": "address"
        },
        {
          "indexed": false,
          "internalType": "uint256",
          "name": "amount",
          "type": "uint256"
        }
      ],
      "name": "FaucetClaimed",
      "type": "event"
    },
    {
      "anonymous": false,
      "inputs": [
        {
          "indexed": true,
          "internalType": "address",
          "name": "previousOwner",
          "type": "address"
        },
        {
          "indexed": true,
          "internalType": "address",
          "name": "newOwner",
          "type": "address"
        }
      ],
      "name": "OwnershipTransferred",
      "type": "event"
    },
    {
      "anonymous": false,
      "inputs": [
        {
          "indexed": false,
          "internalType": "address",
          "name": "account",
          "type": "address"
        }
      ],
      "name": "Paused",
      "type": "event"
    },
    {
      "anonymous": false,
      "inputs": [
        {
          "indexed": true,
          "internalType": "address",
          "name": "user",
          "type": "address"
        },
        {
          "indexed": false,
          "internalType": "uint256",
          "name": "newReputation",
          "type": "uint256"
        }
      ],
      "name": "ReputationUpdated",
      "type": "event"
    },
    {
      "anonymous": false,
      "inputs": [
        {
          "indexed": true,
          "internalType": "address",
          "name": "user",
          "type": "address"
        },
        {
          "indexed": false,
          "internalType": "uint256",
          "name": "amount",
          "type": "uint256"
        },
        {
          "indexed": false,
          "internalType": "string",
          "name": "reason",
          "type": "string"
        }
      ],
      "name": "TokensRewarded",
      "type": "event"
    },
    {
      "anonymous": false,
      "inputs": [
        {
          "indexed": true,
          "internalType": "address",
          "name": "user",
          "type": "address"
        },
        {
          "indexed": false,
          "internalType": "uint256",
          "name": "amount",
          "type": "uint256"
        }
      ],
      "name": "TokensStaked",
      "type": "event"
    },
    {
      "anonymous": false,
      "inputs": [
        {
          "indexed": true,
          "internalType": "address",
          "name": "user",
          "type": "address"
        },
        {
          "indexed": false,
          "internalType": "uint256",
          "name": "amount",
          "type": "uint256"
        }
      ],
      "name": "TokensUnstaked",
      "type": "event"
    },
    {
      "anonymous": false,
      "inputs": [
        {
          "indexed": true,
          "internalType": "address",
          "name": "from",
          "type": "address"
        },
        {
          "indexed": true,
          "internalType": "address",
          "name": "to",
          "type": "address"
        },
        {
          "indexed": false,
          "internalType": "uint256",
          "name": "value",
          "type": "uint256"
        }
      ],
      "name": "Transfer",
      "type": "event"
    },
    {
      "anonymous": false,
      "inputs": [
        {
          "indexed": false,
          "internalType": "address",
          "name": "account",
          "type": "address"
        }
      ],
      "name": "Unpaused",
      "type": "event"
    },
    {
      "anonymous": false,
      "inputs": [
        {
          "indexed": true,
          "internalType": "address",
          "name": "user",
          "type": "address"
        }
      ],
      "name": "ValidatorRegistered",
      "type": "event"
    },
    {
      "inputs": [],
      "name": "FAUCET_AMOUNT",
      "outputs": [
        {
          "internalType": "uint256",
          "name": "",
          "type": "uint256"
        }
      ],
      "stateMutability": "view",
      "type": "function"
    },
    {
      "inputs": [],
      "name": "FAUCET_COOLDOWN",
      "outputs": [
        {
          "internalType": "uint256",
          "name": "",
          "type": "uint256"
        }
      ],
      "stateMutability": "view",
      "type": "function"
    },
    {
      "inputs": [],
      "name": "INITIAL_SUPPLY",
      "outputs": [
        {
          "internalType": "uint256",
          "name": "",
          "type": "uint256"
        }
      ],
      "stateMutability": "view",
      "type": "function"
    },
    {
      "inputs": [],
      "name": "REWARD_PER_VERIFICATION",
      "outputs": [
        {
          "internalType": "uint256",
          "name": "",
          "type": "uint256"
        }
      ],
      "stateMutability": "view",
      "type": "function"
    },
    {
      "inputs": [],
      "name": "STAKE_REQUIREMENT",
      "outputs": [
        {
          "internalType": "uint256",
          "name": "",
          "type": "uint256"
        }
      ],
      "stateMutability": "view",
      "type": "function"
    },
    {
      "inputs": [
        {
          "internalType": "address",
          "name": "owner",
          "type": "address"
        },
        {
          "internalType": "address",
          "name": "spender",
          "type": "address"
        }
      ],
      "name": "allowance",
      "outputs": [
        {
          "internalType": "uint256",
          "name": "",
          "type": "uint256"
        }
      ],
      "stateMutability": "view",
      "type": "function"
    },
    {
      "inputs": [
        {
          "internalType": "address",
          "name": "spender",
          "type": "address"
        },
        {
          "internalType": "uint256",
          "name": "value",
          "type": "uint256"
        }
      ],
      "name": "approve",
      "outputs": [
        {
          "internalType": "bool",
          "name": "",
          "type": "bool"
        }
      ],
      "stateMutability": "nonpayable",
      "type": "function"
    },
    {
      "inputs": [
        {
          "internalType": "address",
          "name": "account",
          "type": "address"
        }
      ],
      "name": "balanceOf",
      "outputs": [
        {
          "internalType": "uint256",
          "name": "",
          "type": "uint256"
        }
      ],
      "stateMutability": "view",
      "type": "function"
    },
    {
      "inputs": [
        {
          "internalType": "address",
          "name": "user",
          "type": "address"
        }
      ],
      "name": "canClaimFaucet",
      "outputs": [
        {
          "internalType": "bool",
          "name": "",
          "type": "bool"
        }
      ],
      "stateMutability": "view",
      "type": "function"
    },
    {
      "inputs": [],
      "name": "claimFaucet",
      "outputs": [],
      "stateMutability": "nonpayable",
      "type": "function"
    },
    {
      "inputs": [],
      "name": "decimals",
      "outputs": [
        {
          "internalType": "uint8",
          "name": "",
          "type": "uint8"
        }
      ],
      "stateMutability": "view",
      "type": "function"
    },
    {
      "inputs": [
        {
          "internalType": "address",
          "name": "user",
          "type": "address"
        }
      ],
      "name": "getFaucetCooldown",
      "outputs": [
        {
          "internalType": "uint256",
          "name": "",
          "type": "uint256"
        }
      ],
      "stateMutability": "view",
      "type": "function"
    },
    {
      "inputs": [
        {
          "internalType": "address",
          "name": "user",
          "type": "address"
        }
      ],
      "name": "getReputation",
      "outputs": [
        {
          "internalType": "uint256",
          "name": "",
          "type": "uint256"
        }
      ],
      "stateMutability": "view",
      "type": "function"
    },
    {
      "inputs": [
        {
          "internalType": "address",
          "name": "user",
          "type": "address"
        }
      ],
      "name": "isValidator",
      "outputs": [
        {
          "internalType": "bool",
          "name": "",
          "type": "bool"
        }
      ],
      "stateMutability": "view",
      "type": "function"
    },
    {
      "inputs": [
        {
          "internalType": "address",
          "name": "",
          "type": "address"
        }
      ],
      "name": "lastFaucetClaim",
      "outputs": [
        {
          "internalType": "uint256",
          "name": "",
          "type": "uint256"
        }
      ],
      "stateMutability": "view",
      "type": "function"
    },
    {
      "inputs": [],
      "name": "name",
      "outputs": [
        {
          "internalType": "string",
          "name": "",
          "type": "string"
        }
      ],
      "stateMutability": "view",
      "type": "function"
    },
    {
      "inputs": [],
      "name": "owner",
      "outputs": [
        {
          "internalType": "address",
          "name": "",
          "type": "address"
        }
      ],
      "stateMutability": "view",
      "type": "function"
    },
    {
      "inputs": [],
      "name": "paused",
      "outputs": [
        {
          "internalType": "bool",
          "name": "",
          "type": "bool"
        }
      ],
      "stateMutability": "view",
      "type": "function"
    },
    {
      "inputs": [],
      "name": "renounceOwnership",
      "outputs": [],
      "stateMutability": "nonpayable",
      "type": "function"
    },
    {
      "inputs": [
        {
          "internalType": "address",
          "name": "",
          "type": "address"
        }
      ],
      "name": "reputation",
      "outputs": [
        {
          "internalType": "uint256",
          "name": "",
          "type": "uint256"
        }
      ],
      "stateMutability": "view",
      "type": "function"
    },
    {
      "inputs": [
        {
          "internalType": "address",
          "name": "user",
          "type": "address"
        },
        {
          "internalType": "string",
          "name": "reason",
          "type": "string"
        }
      ],
      "name": "rewardTokens",
      "outputs": [],
      "stateMutability": "nonpayable",
      "type": "function"
    },
    {
      "inputs": [
        {
          "internalType": "address",
          "name": "validator",
          "type": "address"
        },
        {
          "internalType": "uint256",
          "name": "amount",
          "type": "uint256"
        }
      ],
      "name": "slashValidator",
      "outputs": [],
      "stateMutability": "nonpayable",
      "type": "function"
    },
    {
      "inputs": [
        {
          "internalType": "uint256",
          "name": "amount",
          "type": "uint256"
        }
      ],
      "name": "stakeTokens",
      "outputs": [],
      "stateMutability": "nonpayable",
      "type": "function"
    },
    {
      "inputs": [
        {
          "internalType": "address",
          "name": "",
          "type": "address"
        }
      ],
      "name": "stakes",
      "outputs": [
        {
          "internalType": "uint256",
          "name": "",
          "type": "uint256"
        }
      ],
      "stateMutability": "view",
      "type": "function"
    },
    {
      "inputs": [],
      "name": "symbol",
      "outputs": [
        {
          "internalType": "string",
          "name": "",
          "type": "string"
        }
      ],
      "stateMutability": "view",
      "type": "function"
    },
    {
      "inputs": [],
      "name": "totalSupply",
      "outputs": [
        {
          "internalType": "uint256",
          "name": "",
          "type": "uint256"
        }
      ],
      "stateMutability": "view",
      "type": "function"
    },
    {
      "inputs": [
        {
          "internalType": "address",
          "name": "to",
          "type": "address"
        },
        {
          "internalType": "uint256",
          "name": "value",
          "type": "uint256"
        }
      ],
      "name": "transfer",
      "outputs": [
        {
          "internalType": "bool",
          "name": "",
          "type": "bool"
        }
      ],
      "stateMutability": "nonpayable",
      "type": "function"
    },
    {
      "inputs": [
        {
          "internalType": "address",
          "name": "from",
          "type": "address"
        },
        {
          "internalType": "address",
          "name": "to",
          "type": "address"
        },
        {
          "internalType": "uint256",
          "name": "value",
          "type": "uint256"
        }
      ],
      "name": "transferFrom",
      "outputs": [
        {
          "internalType": "bool",
          "name": "",
          "type": "bool"
        }
      ],
      "stateMutability": "nonpayable",
      "type": "function"
    },
    {
      "inputs": [
        {
          "internalType": "address",
          "name": "newOwner",
          "type": "address"
        }
      ],
      "name": "transferOwnership",
      "outputs": [],
      "stateMutability": "nonpayable",
      "type": "function"
    },
    {
      "inputs": [
        {
          "internalType": "uint256",
          "name": "amount",
          "type": "uint256"
        }
      ],
      "name": "unstakeTokens",
      "outputs": [],
      "stateMutability": "nonpayable",
      "type": "function"
    },
    {
      "inputs": [
        {
          "internalType": "address",
          "name": "",
          "type": "address"
        }
      ],
      "name": "validators",
      "outputs": [
        {
          "internalType": "bool",
          "name": "",
          "type": "bool"
        }
      ],
      "stateMutability": "view",
      "type": "function"
    }
  ],
  "bytecode": "0x60806040523480156200001157600080fd5b50336040518060400160405280600c81526020016b2d32b934b33c902a37b5b2b760a11b815250604051806040016040528060068152602001655a455249465960d01b81525081600390816200006891906200033a565b5060046200007782826200033a565b5050506001600160a01b038116620000aa57604051631e4fbdf760e01b8152600060048201526024015b60405180910390fd5b620000b581620000d2565b50620000cc3369d3c21bcecceda100000062000124565b6200042e565b600580546001600160a01b038381166001600160a01b0319831681179093556040519116919082907f8be0079c531659141344cd1fd0a4f28419497f9722a3daafe3b4186f6b6457e090600090a35050565b6001600160a01b038216620001505760405163ec442f0560e01b815260006004820152602401620000a1565b6200015e6000838362000162565b5050565b6001600160a01b0383166200019157806002600082825462000185919062000406565b90915550620002059050565b6001600160a01b03831660009081526020819052604090205481811015620001e65760405163391434e360e21b81526001600160a01b03851660048201526024810182905260448101839052606401620000a1565b6001600160a01b03841660009081526020819052604090209082900390555b6001600160a01b038216620002235760028054829003905562000242565b6001600160a01b03821660009081526020819052604090208054820190555b816001600160a01b0316836001600160a01b03167fddf252ad1be2c89b69c2b068fc378daa952ba7f163c4a11628f55a4df523b3ef836040516200028891815260200190565b60405180910390a3505050565b634e487b7160e01b600052604160045260246000fd5b600181811c90821680620002c057607f821691505b602082108103620002e157634e487b7160e01b600052602260045260246000fd5b50919050565b601f8211156200033557600081815260208120601f850160051c81016020861015620003105750805b601f850160051c820191505b8181101562000331578281556001016200031c565b5050505b505050565b81516001600160401b0381111562000356576200035662000295565b6200036e81620003678454620002ab565b84620002e7565b602080601f831160018114620003a657600084156200038d5750858301515b600019600386901b1c1916600185901b17855562000331565b600085815260208120601f198616915b82811015620003d757888601518255948401946001909101908401620003b6565b5085821015620003f65787850151600019600388901b60f8161c191681555b5050505050600190811b01905550565b808201808211156200042857634e487b7160e01b600052601160045260246000fd5b92915050565b6113a7806200043e6000396000f3fe608060405234801561001057600080fd5b50600436106101e55760003560e01c8063766976401161010f578063c118258b116100a2578063e094a56211610071578063e094a56214610441578063f2fde38b14610450578063fa52c7d814610463578063facd743b1461048657600080fd5b8063c118258b14610329578063cffb1fef146103e2578063dd62ed3e146103f5578063dd7b49f91461042e57600080fd5b806395d89b41116100de57806395d89b411461037e5780639c89a0e214610386578063a9059cbb146103af578063b9f79451146103c257600080fd5b806376697640146103295780637d1d5d19146103395780638a877205146103435780638da5cb5b1461036357600080fd5b8063313ce56711610187578063608e4dd011610156578063608e4dd0146102d257806370a08231146102e5578063715018a61461030e5780637547c7a31461031657600080fd5b8063313ce567146102945780633e4208ef146102a35780634fe15335146102b85780635c975abb146102c057600080fd5b806316934fc4116101c357806316934fc41461023a57806318160ddd1461026857806323b872dd146102705780632ff2e9dc1461028357600080fd5b806301d8a296146101ea57806306fdde0314610212578063095ea7b314610227575b600080fd5b6101fd6101f83660046110d5565b6104b2565b60405190151581526020015b60405180910390f35b61021a610514565b604051610209919061113d565b6101fd610235366004611150565b6105a6565b61025a6102483660046110d5565b60066020526000908152604090205481565b604051908152602001610209565b60025461025a565b6101fd61027e36600461117a565b6105be565b61025a69d3c21bcecceda100000081565b60405160128152602001610209565b6102b66102b1366004611150565b6105e2565b005b6102b66107cf565b600554600160a01b900460ff166101fd565b6102b66102e03660046111b6565b610908565b61025a6102f33660046110d5565b6001600160a01b031660009081526020819052604090205490565b6102b66109fb565b6102b66103243660046111b6565b610a0f565b61025a683635c9adc5dea0000081565b61025a6201518081565b61025a6103513660046110d5565b60096020526000908152604090205481565b6005546040516001600160a01b039091168152602001610209565b61021a610b6f565b61025a6103943660046110d5565b6001600160a01b031660009081526008602052604090205490565b6101fd6103bd366004611150565b610b7e565b61025a6103d03660046110d5565b60086020526000908152604090205481565b6102b66103f03660046111e5565b610b8c565b61025a6104033660046112a7565b6001600160a01b03918216600090815260016020908152604080832093909416825291909152205490565b61025a61043c3660046110d5565b610c6b565b61025a678ac7230489e8000081565b6102b661045e3660046110d5565b610cd3565b6101fd6104713660046110d5565b60076020526000908152604090205460ff1681565b6101fd6104943660046110d5565b6001600160a01b031660009081526007602052604090205460ff1690565b6001600160a01b0381166000908152600960205260408120546104d99062015180906112f0565b421015801561050e5750683635c9adc5dea0000061050c836001600160a01b031660009081526020819052604090205490565b105b92915050565b60606003805461052390611303565b80601f016020809104026020016040519081016040528092919081815260200182805461054f90611303565b801561059c5780601f106105715761010080835404028352916020019161059c565b820191906000526020600020905b81548152906001019060200180831161057f57829003601f168201915b5050505050905090565b6000336105b4818585610d11565b5060019392505050565b6000336105cc858285610d23565b6105d7858585610da2565b506001949350505050565b6105ea610e01565b6001600160a01b03821660009081526007602052604090205460ff166106495760405162461bcd60e51b815260206004820152600f60248201526e2737ba1030903b30b634b230ba37b960891b60448201526064015b60405180910390fd5b6001600160a01b0382166000908152600660205260409020548111156106b15760405162461bcd60e51b815260206004820152601b60248201527f496e73756666696369656e74207374616b6520746f20736c61736800000000006044820152606401610640565b6001600160a01b038216600090815260066020526040812080548392906106d990849061133d565b90915550506001600160a01b038216600090815260086020526040902054610702576000610727565b6001600160a01b0382166000908152600860205260409020546107279060019061133d565b6001600160a01b038316600090815260086020908152604080832093909355600690522054683635c9adc5dea00000111561077d576001600160a01b0382166000908152600760205260409020805460ff191690555b6001600160a01b0382166000818152600860209081526040918290205491519182527ffc577563f1b9a0461e24abef1e1fcc0d33d3d881f20b5df6dda59de4aae2c82191015b60405180910390a25050565b336000908152600960205260409020546107ed9062015180906112f0565b42101561083c5760405162461bcd60e51b815260206004820152601b60248201527f46617563657420636f6f6c646f776e206e6f74206578706972656400000000006044820152606401610640565b33600090815260208190526040902054683635c9adc5dea00000116108a35760405162461bcd60e51b815260206004820152601a60248201527f416c7265616479206861766520656e6f75676820746f6b656e730000000000006044820152606401610640565b3360008181526009602052604090204290556108c890683635c9adc5dea00000610e2e565b604051683635c9adc5dea00000815233907f5d4f415c63cd8a5874d9d291cdd64cec37e5dc236d90d659c958d109d78074b39060200160405180910390a2565b3360009081526006602052604090205481111561095c5760405162461bcd60e51b8152602060048201526012602482015271496e73756666696369656e74207374616b6560701b6044820152606401610640565b336000908152600660205260408120805483929061097b90849061133d565b909155505033600090815260066020526040902054683635c9adc5dea0000011156109b857336000908152600760205260409020805460ff191690555b6109c3303383610da2565b60405181815233907f9845e367b683334e5c0b12d7b81721ac518e649376fa65e3d68324e8f34f26799060200160405180910390a250565b610a03610e01565b610a0d6000610e68565b565b683635c9adc5dea00000811015610a685760405162461bcd60e51b815260206004820152601960248201527f496e73756666696369656e74207374616b6520616d6f756e74000000000000006044820152606401610640565b33600090815260208190526040902054811115610abe5760405162461bcd60e51b8152602060048201526014602482015273496e73756666696369656e742062616c616e636560601b6044820152606401610640565b610ac9333083610da2565b3360009081526006602052604081208054839290610ae89084906112f0565b90915550503360008181526007602052604090819020805460ff19166001179055517fb539ca1e5c8d398ddf1c41c30166f33404941683be4683319b57669a93dad4ef90610b399084815260200190565b60405180910390a260405133907fd09501348473474a20c772c79c653e1fd7e8b437e418fe235d277d2c8885325190600090a250565b60606004805461052390611303565b6000336105b4818585610da2565b610b94610e01565b610ba682678ac7230489e80000610e2e565b6001600160a01b0382166000908152600860205260408120805460019290610bcf9084906112f0565b92505081905550816001600160a01b03167fb969d134776a7f04430dbbcac4e68734b1c6c5adcecbf68c3cbe6a9a4f2c8a1d678ac7230489e8000083604051610c19929190611350565b60405180910390a26001600160a01b0382166000818152600860209081526040918290205491519182527ffc577563f1b9a0461e24abef1e1fcc0d33d3d881f20b5df6dda59de4aae2c82191016107c3565b6001600160a01b038116600090815260096020526040812054610c929062015180906112f0565b4210610ca057506000919050565b6001600160a01b0382166000908152600960205260409020544290610cc99062015180906112f0565b61050e919061133d565b610cdb610e01565b6001600160a01b038116610d0557604051631e4fbdf760e01b815260006004820152602401610640565b610d0e81610e68565b50565b610d1e8383836001610eba565b505050565b6001600160a01b03838116600090815260016020908152604080832093861683529290522054600019811015610d9c5781811015610d8d57604051637dc7a0d960e11b81526001600160a01b03841660048201526024810182905260448101839052606401610640565b610d9c84848484036000610eba565b50505050565b6001600160a01b038316610dcc57604051634b637e8f60e11b815260006004820152602401610640565b6001600160a01b038216610df65760405163ec442f0560e01b815260006004820152602401610640565b610d1e838383610f8f565b6005546001600160a01b03163314610a0d5760405163118cdaa760e01b8152336004820152602401610640565b6001600160a01b038216610e585760405163ec442f0560e01b815260006004820152602401610640565b610e6460008383610f8f565b5050565b600580546001600160a01b038381166001600160a01b0319831681179093556040519116919082907f8be0079c531659141344cd1fd0a4f28419497f9722a3daafe3b4186f6b6457e090600090a35050565b6001600160a01b038416610ee45760405163e602df0560e01b815260006004820152602401610640565b6001600160a01b038316610f0e57604051634a1406b160e11b815260006004820152602401610640565b6001600160a01b0380851660009081526001602090815260408083209387168352929052208290558015610d9c57826001600160a01b0316846001600160a01b03167f8c5be1e5ebec7d5bd14f71427d1e84f3dd0314c0f7b2291e5b200ac8c7c3b92584604051610f8191815260200190565b60405180910390a350505050565b6001600160a01b038316610fba578060026000828254610faf91906112f0565b9091555061102c9050565b6001600160a01b0383166000908152602081905260409020548181101561100d5760405163391434e360e21b81526001600160a01b03851660048201526024810182905260448101839052606401610640565b6001600160a01b03841660009081526020819052604090209082900390555b6001600160a01b03821661104857600280548290039055611067565b6001600160a01b03821660009081526020819052604090208054820190555b816001600160a01b0316836001600160a01b03167fddf252ad1be2c89b69c2b068fc378daa952ba7f163c4a11628f55a4df523b3ef836040516110ac91815260200190565b60405180910390a3505050565b80356001600160a01b03811681146110d057600080fd5b919050565b6000602082840312156110e757600080fd5b6110f0826110b9565b9392505050565b6000815180845260005b8181101561111d57602081850181015186830182015201611101565b506000602082860101526020601f19601f83011685010191505092915050565b6020815260006110f060208301846110f7565b6000806040838503121561116357600080fd5b61116c836110b9565b946020939093013593505050565b60008060006060848603121561118f57600080fd5b611198846110b9565b92506111a6602085016110b9565b9150604084013590509250925092565b6000602082840312156111c857600080fd5b5035919050565b634e487b7160e01b600052604160045260246000fd5b600080604083850312156111f857600080fd5b611201836110b9565b9150602083013567ffffffffffffffff8082111561121e57600080fd5b818501915085601f83011261123257600080fd5b813581811115611244576112446111cf565b604051601f8201601f19908116603f0116810190838211818310171561126c5761126c6111cf565b8160405282815288602084870101111561128557600080fd5b8260208601602083013760006020848301015280955050505050509250929050565b600080604083850312156112ba57600080fd5b6112c3836110b9565b91506112d1602084016110b9565b90509250929050565b634e487b7160e01b600052601160045260246000fd5b8082018082111561050e5761050e6112da565b600181811c9082168061131757607f821691505b60208210810361133757634e487b7160e01b600052602260045260246000fd5b50919050565b8181038181111561050e5761050e6112da565b82815260406020820152600061136960408301846110f7565b94935050505056fea2646970667358221220d92c9a3b1f54085bb1497e384554ff279d13924fc58d205f72b6b650af03b28b64736f6c63430008140033",
  "linkReferences": {},
  "deployedLinkReferences": {}
}