{
  "_format": "hh-sol-artifact-1",
  "contractName": "VerificationRegistry",
  "sourceName": "contracts/VerificationRegistry.sol",
  "abi": [
    {
      "inputs": [],
      "stateMutability": "nonpayable",
      "type": "constructor"
    },
    {
      "inputs": [
        {
          "internalType": "address",
          "name": "owner",
          "type": "address"
        }
      ],
      "name": "OwnableInvalidOwner",
      "type": "error"
    },
    {
      "inputs": [
        {
          "internalType": "address",
          "name": "account",
          "type": "address"
        }
      ],
      "name": "OwnableUnauthorizedAccount",
      "type": "error"
    },
    {
      "inputs": [],
      "name": "ReentrancyGuardReentrantCall",
      "type": "error"
    },
    {
      "anonymous": false,
      "inputs": [
        {
          "indexed": true,
          "internalType": "string",
          "name": "domain",
          "type": "string"
        },
        {
          "indexed": true,
          "internalType": "address",
          "name": "disputer",
          "type": "address"
        },
        {
          "indexed": false,
          "internalType": "string",
          "name": "reason",
          "type": "string"
        }
      ],
      "name": "DisputeCreated",
      "type": "event"
    },
    {
      "anonymous": false,
      "inputs": [
        {
          "indexed": true,
          "internalType": "string",
          "name": "domain",
          "type": "string"
        },
        {
          "indexed": false,
          "internalType": "bool",
          "name": "upheld",
          "type": "bool"
        },
        {
          "indexed": true,
          "internalType": "address",
          "name": "resolver",
          "type": "address"
        }
      ],
      "name": "DisputeResolved",
      "type": "event"
    },
    {
      "anonymous": false,
      "inputs": [
        {
          "indexed": true,
          "internalType": "address",
          "name": "previousOwner",
          "type": "address"
        },
        {
          "indexed": true,
          "internalType": "address",
          "name": "newOwner",
          "type": "address"
        }
      ],
      "name": "OwnershipTransferred",
      "type": "event"
    },
    {
      "anonymous": false,
      "inputs": [
        {
          "indexed": true,
          "internalType": "address",
          "name": "reporter",
          "type": "address"
        },
        {
          "indexed": false,
          "internalType": "uint256",
          "name": "newReputation",
          "type": "uint256"
        }
      ],
      "name": "ReputationUpdated",
      "type": "event"
    },
    {
      "anonymous": false,
      "inputs": [
        {
          "indexed": true,
          "internalType": "string",
          "name": "domain",
          "type": "string"
        },
        {
          "indexed": false,
          "internalType": "string",
          "name": "url",
          "type": "string"
        },
        {
          "indexed": false,
          "internalType": "uint256",
          "name": "trustScore",
          "type": "uint256"
        },
        {
          "indexed": true,
          "internalType": "address",
          "name": "reporter",
          "type": "address"
        },
        {
          "indexed": false,
          "internalType": "string",
          "name": "ipfsHash",
          "type": "string"
        }
      ],
      "name": "VerificationSubmitted",
      "type": "event"
    },
    {
      "inputs": [],
      "name": "DISPUTE_THRESHOLD",
      "outputs": [
        {
          "internalType": "uint256",
          "name": "",
          "type": "uint256"
        }
      ],
      "stateMutability": "view",
      "type": "function"
    },
    {
      "inputs": [],
      "name": "MAX_TRUST_SCORE",
      "outputs": [
        {
          "internalType": "uint256",
          "name": "",
          "type": "uint256"
        }
      ],
      "stateMutability": "view",
      "type": "function"
    },
    {
      "inputs": [],
      "name": "MIN_TRUST_SCORE",
      "outputs": [
        {
          "internalType": "uint256",
          "name": "",
          "type": "uint256"
        }
      ],
      "stateMutability": "view",
      "type": "function"
    },
    {
      "inputs": [
        {
          "internalType": "string",
          "name": "domain",
          "type": "string"
        },
        {
          "internalType": "string",
          "name": "reason",
          "type": "string"
        }
      ],
      "name": "createDispute",
      "outputs": [],
      "stateMutability": "nonpayable",
      "type": "function"
    },
    {
      "inputs": [
        {
          "internalType": "string",
          "name": "",
          "type": "string"
        },
        {
          "internalType": "uint256",
          "name": "",
          "type": "uint256"
        }
      ],
      "name": "disputes",
      "outputs": [
        {
          "internalType": "address",
          "name": "disputer",
          "type": "address"
        },
        {
          "internalType": "string",
          "name": "reason",
          "type": "string"
        },
        {
          "internalType": "uint256",
          "name": "timestamp",
          "type": "uint256"
        },
        {
          "internalType": "bool",
          "name": "resolved",
          "type": "bool"
        }
      ],
      "stateMutability": "view",
      "type": "function"
    },
    {
      "inputs": [
        {
          "internalType": "string",
          "name": "domain",
          "type": "string"
        }
      ],
      "name": "getDisputes",
      "outputs": [
        {
          "components": [
            {
              "internalType": "address",
              "name": "disputer",
              "type": "address"
            },
            {
              "internalType": "string",
              "name": "reason",
              "type": "string"
            },
            {
              "internalType": "uint256",
              "name": "timestamp",
              "type": "uint256"
            },
            {
              "internalType": "bool",
              "name": "resolved",
              "type": "bool"
            }
          ],
          "internalType": "struct VerificationRegistry.Dispute[]",
          "name": "",
          "type": "tuple[]"
        }
      ],
      "stateMutability": "view",
      "type": "function"
    },
    {
      "inputs": [
        {
          "internalType": "string",
          "name": "domain",
          "type": "string"
        }
      ],
      "name": "getTrustScore",
      "outputs": [
        {
          "internalType": "uint256",
          "name": "",
          "type": "uint256"
        }
      ],
      "stateMutability": "view",
      "type": "function"
    },
    {
      "inputs": [
        {
          "internalType": "string",
          "name": "domain",
          "type": "string"
        }
      ],
      "name": "getVerification",
      "outputs": [
        {
          "components": [
            {
              "internalType": "string",
              "name": "url",
              "type": "string"
            },
            {
              "internalType": "string",
              "name": "domain",
              "type": "string"
            },
            {
              "internalType": "uint256",
              "name": "trustScore",
              "type": "uint256"
            },
            {
              "internalType": "uint256",
              "name": "timestamp",
              "type": "uint256"
            },
            {
              "internalType": "address",
              "name": "reporter",
              "type": "address"
            },
            {
              "internalType": "string",
              "name": "ipfsHash",
              "type": "string"
            },
            {
              "internalType": "bool",
              "name": "isDisputed",
              "type": "bool"
            },
            {
              "internalType": "uint256",
              "name": "disputeCount",
              "type": "uint256"
            }
          ],
          "internalType": "struct VerificationRegistry.Verification",
          "name": "",
          "type": "tuple"
        }
      ],
      "stateMutability": "view",
      "type": "function"
    },
    {
      "inputs": [
        {
          "internalType": "string",
          "name": "domain",
          "type": "string"
        }
      ],
      "name": "isVerified",
      "outputs": [
        {
          "internalType": "bool",
          "name": "",
          "type": "bool"
        }
      ],
      "stateMutability": "view",
      "type": "function"
    },
    {
      "inputs": [],
      "name": "owner",
      "outputs": [
        {
          "internalType": "address",
          "name": "",
          "type": "address"
        }
      ],
      "stateMutability": "view",
      "type": "function"
    },
    {
      "inputs": [],
      "name": "renounceOwnership",
      "outputs": [],
      "stateMutability": "nonpayable",
      "type": "function"
    },
    {
      "inputs": [
        {
          "internalType": "address",
          "name": "",
          "type": "address"
        }
      ],
      "name": "reporterReputation",
      "outputs": [
        {
          "internalType": "uint256",
          "name": "",
          "type": "uint256"
        }
      ],
      "stateMutability": "view",
      "type": "function"
    },
    {
      "inputs": [
        {
          "internalType": "string",
          "name": "domain",
          "type": "string"
        },
        {
          "internalType": "bool",
          "name": "upheld",
          "type": "bool"
        }
      ],
      "name": "resolveDispute",
      "outputs": [],
      "stateMutability": "nonpayable",
      "type": "function"
    },
    {
      "inputs": [
        {
          "internalType": "string",
          "name": "url",
          "type": "string"
        },
        {
          "internalType": "string",
          "name": "domain",
          "type": "string"
        },
        {
          "internalType": "uint256",
          "name": "trustScore",
          "type": "uint256"
        },
        {
          "internalType": "string",
          "name": "ipfsHash",
          "type": "string"
        }
      ],
      "name": "submitVerification",
      "outputs": [],
      "stateMutability": "nonpayable",
      "type": "function"
    },
    {
      "inputs": [
        {
          "internalType": "address",
          "name": "newOwner",
          "type": "address"
        }
      ],
      "name": "transferOwnership",
      "outputs": [],
      "stateMutability": "nonpayable",
      "type": "function"
    },
    {
      "inputs": [
        {
          "internalType": "string",
          "name": "",
          "type": "string"
        }
      ],
      "name": "verifications",
      "outputs": [
        {
          "internalType": "string",
          "name": "url",
          "type": "string"
        },
        {
          "internalType": "string",
          "name": "domain",
          "type": "string"
        },
        {
          "internalType": "uint256",
          "name": "trustScore",
          "type": "uint256"
        },
        {
          "internalType": "uint256",
          "name": "timestamp",
          "type": "uint256"
        },
        {
          "internalType": "address",
          "name": "reporter",
          "type": "address"
        },
        {
          "internalType": "string",
          "name": "ipfsHash",
          "type": "string"
        },
        {
          "internalType": "bool",
          "name": "isDisputed",
          "type": "bool"
        },
        {
          "internalType": "uint256",
          "name": "disputeCount",
          "type": "uint256"
        }
      ],
      "stateMutability": "view",
      "type": "function"
    }
  ],
  "bytecode": "0x608060405234801561001057600080fd5b50338061003757604051631e4fbdf760e01b81526000600482015260240160405180910390fd5b6100408161004a565b506001805561009a565b600080546001600160a01b038381166001600160a01b0319831681178455604051919092169283917f8be0079c531659141344cd1fd0a4f28419497f9722a3daafe3b4186f6b6457e09190a35050565b6119f9806100a96000396000f3fe608060405234801561001057600080fd5b50600436106101005760003560e01c80638da5cb5b11610097578063ce42262611610066578063ce4226261461021b578063d0a028d11461022e578063e89dada61461024e578063f2fde38b1461026e57600080fd5b80638da5cb5b146101ae5780639b5b2ef6146101c9578063b9e9c8b4146101f0578063ca1e910a146101f857600080fd5b8063715018a6116100d3578063715018a61461017657806374700edd1461018057806374c8d377146101935780638cd1ac611461019b57600080fd5b8063057e709c146101055780631c5fb19214610120578063234c76d514610133578063629be2b614610156575b600080fd5b61010d600081565b6040519081526020015b60405180910390f35b61010d61012e366004611398565b610281565b610146610141366004611398565b610315565b6040519015158152602001610117565b610169610164366004611398565b61037c565b6040516101179190611425565b61017e6104c0565b005b61017e61018e3660046114bd565b6104d4565b61010d606481565b61017e6101a936600461154f565b610843565b6000546040516001600160a01b039091168152602001610117565b6101dc6101d7366004611398565b610ac5565b6040516101179897969594939291906115b3565b61010d600381565b61020b610206366004611624565b610cbb565b6040516101179493929190611669565b61017e6102293660046116a5565b610daa565b61024161023c366004611398565b610f45565b60405161011791906116fc565b61010d61025c3660046117b1565b60046020526000908152604090205481565b61017e61027c3660046117b1565b6111c3565b600060028260405161029391906117da565b908152602001604051809103902060010180546102af906117f6565b159050806102df57506002826040516102c891906117da565b9081526040519081900360200190206006015460ff165b156102ec57506000919050565b6002826040516102fc91906117da565b9081526020016040518091039020600201549050919050565b60008060028360405161032891906117da565b90815260200160405180910390206001018054610344906117f6565b9050118015610376575060028260405161035e91906117da565b9081526040519081900360200190206006015460ff16155b92915050565b606060038260405161038e91906117da565b9081526020016040518091039020805480602002602001604051908101604052809291908181526020016000905b828210156104b557600084815260209081902060408051608081019091526004850290910180546001600160a01b031682526001810180549293919291840191610405906117f6565b80601f0160208091040260200160405190810160405280929190818152602001828054610431906117f6565b801561047e5780601f106104535761010080835404028352916020019161047e565b820191906000526020600020905b81548152906001019060200180831161046157829003601f168201915b5050509183525050600282015460208083019190915260039092015460ff16151560409091015290825260019290920191016103bc565b505050509050919050565b6104c8611201565b6104d2600061122e565b565b60648211156105205760405162461bcd60e51b8152602060048201526013602482015272496e76616c69642074727573742073636f726560681b60448201526064015b60405180910390fd5b60008151116105665760405162461bcd60e51b815260206004820152601260248201527112541194c81a185cda081c995c5d5a5c995960721b6044820152606401610517565b600060028460405161057891906117da565b90815260200160405180910390206001018054610594906117f6565b9050111561068457600a6105c96002856040516105b191906117da565b9081526020016040518091039020600201548461127e565b11806106215750600460006002856040516105e491906117da565b90815260408051602092819003830190206004908101546001600160a01b0316845283830194909452918201600090812054338252939091522054115b6106845760405162461bcd60e51b815260206004820152602e60248201527f496e73756666696369656e742072657075746174696f6e20746f20757064617460448201526d32903b32b934b334b1b0ba34b7b760911b6064820152608401610517565b604051806101000160405280858152602001848152602001838152602001428152602001336001600160a01b0316815260200182815260200160001515815260200160008152506002846040516106db91906117da565b908152604051908190036020019020815181906106f8908261187f565b506020820151600182019061070d908261187f565b50604082015160028201556060820151600382015560808201516004820180546001600160a01b0319166001600160a01b0390921691909117905560a0820151600582019061075c908261187f565b5060c082015160068201805460ff191691151591909117905560e0909101516007909101553360009081526004602052604081208054600192906107a1908490611955565b909155505060405133906107b69085906117da565b60405180910390207f0e2cda1959cb942712cd66c081c1e92559b92cd60b91f617e5376a931a4e7da68685856040516107f193929190611968565b60405180910390a3336000818152600460209081526040918290205491519182527ffc577563f1b9a0461e24abef1e1fcc0d33d3d881f20b5df6dda59de4aae2c821910160405180910390a250505050565b600060028360405161085591906117da565b90815260200160405180910390206001018054610871906117f6565b9050116108c05760405162461bcd60e51b815260206004820152601b60248201527f566572696669636174696f6e20646f6573206e6f7420657869737400000000006044820152606401610517565b6002826040516108d091906117da565b9081526040519081900360200190206006015460ff16156109265760405162461bcd60e51b815260206004820152601060248201526f105b1c9958591e48191a5cdc1d5d195960821b6044820152606401610517565b60038260405161093691906117da565b90815260408051602092819003830181206080820183523382528382018581524293830193909352600060608301819052815460018082018455928252949020825160049095020180546001600160a01b0319166001600160a01b0390951694909417845591519092918201906109ad908261187f565b506040820151816002015560608201518160030160006101000a81548160ff021916908315150217905550505060016002836040516109ec91906117da565b90815260200160405180910390206007016000828254610a0c9190611955565b925050819055506003600283604051610a2591906117da565b90815260200160405180910390206007015410610a72576001600283604051610a4e91906117da565b908152604051908190036020019020600601805491151560ff199092169190911790555b6040513390610a829084906117da565b60405180910390207f05f8af10893e1067ac1a18827ae990130e6c18c87b96fe2697c67d687b7f143a83604051610ab9919061199d565b60405180910390a35050565b8051602081830181018051600282529282019190930120915280548190610aeb906117f6565b80601f0160208091040260200160405190810160405280929190818152602001828054610b17906117f6565b8015610b645780601f10610b3957610100808354040283529160200191610b64565b820191906000526020600020905b815481529060010190602001808311610b4757829003601f168201915b505050505090806001018054610b79906117f6565b80601f0160208091040260200160405190810160405280929190818152602001828054610ba5906117f6565b8015610bf25780601f10610bc757610100808354040283529160200191610bf2565b820191906000526020600020905b815481529060010190602001808311610bd557829003601f168201915b505050600284015460038501546004860154600587018054969793969295506001600160a01b03909116935090610c28906117f6565b80601f0160208091040260200160405190810160405280929190818152602001828054610c54906117f6565b8015610ca15780601f10610c7657610100808354040283529160200191610ca1565b820191906000526020600020905b815481529060010190602001808311610c8457829003601f168201915b505050506006830154600790930154919260ff1691905088565b81516020818401810180516003825292820191850191909120919052805482908110610ce657600080fd5b6000918252602090912060049091020180546001820180546001600160a01b039092169450919250610d17906117f6565b80601f0160208091040260200160405190810160405280929190818152602001828054610d43906117f6565b8015610d905780601f10610d6557610100808354040283529160200191610d90565b820191906000526020600020905b815481529060010190602001808311610d7357829003601f168201915b50505050600283015460039093015491929160ff16905084565b610db2611201565b600282604051610dc291906117da565b9081526040519081900360200190206006015460ff16610e185760405162461bcd60e51b81526020600482015260116024820152704e6f20616374697665206469737075746560781b6044820152606401610517565b8015610ea157600282604051610e2e91906117da565b9081526040519081900360200190206000610e4982826112a7565b610e576001830160006112a7565b600060028301819055600383018190556004830180546001600160a01b0319169055610e879060058401906112a7565b5060068101805460ff191690556000600790910155610efc565b6000600283604051610eb391906117da565b908152604051908190036020018120600601805492151560ff1990931692909217909155600090600290610ee89085906117da565b908152604051908190036020019020600701555b6040513390610f0c9084906117da565b6040519081900381208315158252907fa5e1c052f6702b400c67f6a1f16b5842fd4d17386da707c75a1bf387984cefea90602001610ab9565b610f986040518061010001604052806060815260200160608152602001600081526020016000815260200160006001600160a01b0316815260200160608152602001600015158152602001600081525090565b600282604051610fa891906117da565b908152602001604051809103902060405180610100016040529081600082018054610fd2906117f6565b80601f0160208091040260200160405190810160405280929190818152602001828054610ffe906117f6565b801561104b5780601f106110205761010080835404028352916020019161104b565b820191906000526020600020905b81548152906001019060200180831161102e57829003601f168201915b50505050508152602001600182018054611064906117f6565b80601f0160208091040260200160405190810160405280929190818152602001828054611090906117f6565b80156110dd5780601f106110b2576101008083540402835291602001916110dd565b820191906000526020600020905b8154815290600101906020018083116110c057829003601f168201915b5050509183525050600282015460208201526003820154604082015260048201546001600160a01b03166060820152600582018054608090920191611121906117f6565b80601f016020809104026020016040519081016040528092919081815260200182805461114d906117f6565b801561119a5780601f1061116f5761010080835404028352916020019161119a565b820191906000526020600020905b81548152906001019060200180831161117d57829003601f168201915b5050509183525050600682015460ff161515602082015260079091015460409091015292915050565b6111cb611201565b6001600160a01b0381166111f557604051631e4fbdf760e01b815260006004820152602401610517565b6111fe8161122e565b50565b6000546001600160a01b031633146104d25760405163118cdaa760e01b8152336004820152602401610517565b600080546001600160a01b038381166001600160a01b0319831681178455604051919092169283917f8be0079c531659141344cd1fd0a4f28419497f9722a3daafe3b4186f6b6457e09190a35050565b60008183116112965761129183836119b0565b6112a0565b6112a082846119b0565b9392505050565b5080546112b3906117f6565b6000825580601f106112c3575050565b601f0160209004906000526020600020908101906111fe91905b808211156112f157600081556001016112dd565b5090565b634e487b7160e01b600052604160045260246000fd5b600082601f83011261131c57600080fd5b813567ffffffffffffffff80821115611337576113376112f5565b604051601f8301601f19908116603f0116810190828211818310171561135f5761135f6112f5565b8160405283815286602085880101111561137857600080fd5b836020870160208301376000602085830101528094505050505092915050565b6000602082840312156113aa57600080fd5b813567ffffffffffffffff8111156113c157600080fd5b6113cd8482850161130b565b949350505050565b60005b838110156113f05781810151838201526020016113d8565b50506000910152565b600081518084526114118160208601602086016113d5565b601f01601f19169290920160200192915050565b60006020808301818452808551808352604092508286019150828160051b87010184880160005b838110156114af57888303603f19018552815180516001600160a01b0316845287810151608089860181905290611485828701826113f9565b838a0151878b0152606093840151151593909601929092525050938601939086019060010161144c565b509098975050505050505050565b600080600080608085870312156114d357600080fd5b843567ffffffffffffffff808211156114eb57600080fd5b6114f78883890161130b565b9550602087013591508082111561150d57600080fd5b6115198883890161130b565b945060408701359350606087013591508082111561153657600080fd5b506115438782880161130b565b91505092959194509250565b6000806040838503121561156257600080fd5b823567ffffffffffffffff8082111561157a57600080fd5b6115868683870161130b565b9350602085013591508082111561159c57600080fd5b506115a98582860161130b565b9150509250929050565b60006101008083526115c78184018c6113f9565b905082810360208401526115db818b6113f9565b604084018a9052606084018990526001600160a01b038816608085015283810360a0850152905061160c81876113f9565b94151560c0840152505060e001529695505050505050565b6000806040838503121561163757600080fd5b823567ffffffffffffffff81111561164e57600080fd5b61165a8582860161130b565b95602094909401359450505050565b6001600160a01b038516815260806020820181905260009061168d908301866113f9565b60408301949094525090151560609091015292915050565b600080604083850312156116b857600080fd5b823567ffffffffffffffff8111156116cf57600080fd5b6116db8582860161130b565b925050602083013580151581146116f157600080fd5b809150509250929050565b602081526000825161010080602085015261171b6101208501836113f9565b91506020850151601f198086850301604087015261173984836113f9565b935060408701516060870152606087015160808701526080870151915061176b60a08701836001600160a01b03169052565b60a08701519150808685030160c08701525061178783826113f9565b92505060c085015161179d60e086018215159052565b5060e0949094015192909301919091525090565b6000602082840312156117c357600080fd5b81356001600160a01b03811681146112a057600080fd5b600082516117ec8184602087016113d5565b9190910192915050565b600181811c9082168061180a57607f821691505b60208210810361182a57634e487b7160e01b600052602260045260246000fd5b50919050565b601f82111561187a57600081815260208120601f850160051c810160208610156118575750805b601f850160051c820191505b8181101561187657828155600101611863565b5050505b505050565b815167ffffffffffffffff811115611899576118996112f5565b6118ad816118a784546117f6565b84611830565b602080601f8311600181146118e257600084156118ca5750858301515b600019600386901b1c1916600185901b178555611876565b600085815260208120601f198616915b82811015611911578886015182559484019460019091019084016118f2565b508582101561192f5787850151600019600388901b60f8161c191681555b5050505050600190811b01905550565b634e487b7160e01b600052601160045260246000fd5b808201808211156103765761037661193f565b60608152600061197b60608301866113f9565b846020840152828103604084015261199381856113f9565b9695505050505050565b6020815260006112a060208301846113f9565b818103818111156103765761037661193f56fea264697066735822122031e480064ff5f4efde7407f42b6bc9bedd1c1ca989014a235aebfa9c7e848a5764736f6c63430008140033",
  "linkReferences": {},
  "deployedLinkReferences": {}
}